{
  "address": "0x99082532d1f88b3EDeC053A42C9d07A18315B819",
  "abi": [
    {
      "inputs": [
        {
          "internalType": "address",
          "name": "initialOwner_",
          "type": "address"
        }
      ],
      "stateMutability": "nonpayable",
      "type": "constructor"
    },
    {
      "inputs": [
        {
          "internalType": "uint8",
          "name": "cellIndex",
          "type": "uint8"
        }
      ],
      "name": "CellAlreadyDecrypted",
      "type": "error"
    },
    {
      "inputs": [
        {
          "internalType": "uint8",
          "name": "pendingCellIndex",
          "type": "uint8"
        },
        {
          "internalType": "uint8",
          "name": "newCellIndex",
          "type": "uint8"
        }
      ],
      "name": "CellDecryptionAlreadyRequested",
      "type": "error"
    },
    {
      "inputs": [
        {
          "internalType": "uint8",
          "name": "cellIndex",
          "type": "uint8"
        }
      ],
      "name": "CellIndexOutOfBounds",
      "type": "error"
    },
    {
      "inputs": [
        {
          "internalType": "uint8",
          "name": "cellIndex",
          "type": "uint8"
        }
      ],
      "name": "CellNotDecrypted",
      "type": "error"
    },
    {
      "inputs": [
        {
          "internalType": "uint8",
          "name": "code",
          "type": "uint8"
        }
      ],
      "name": "DebugInternalError",
      "type": "error"
    },
    {
      "inputs": [
        {
          "internalType": "address",
          "name": "sender",
          "type": "address"
        }
      ],
      "name": "GameOver",
      "type": "error"
    },
    {
      "inputs": [
        {
          "internalType": "uint8",
          "name": "row",
          "type": "uint8"
        },
        {
          "internalType": "uint8",
          "name": "col",
          "type": "uint8"
        }
      ],
      "name": "InvalidRowCol",
      "type": "error"
    },
    {
      "inputs": [
        {
          "internalType": "address",
          "name": "owner",
          "type": "address"
        }
      ],
      "name": "OwnableInvalidOwner",
      "type": "error"
    },
    {
      "inputs": [
        {
          "internalType": "address",
          "name": "account",
          "type": "address"
        }
      ],
      "name": "OwnableUnauthorizedAccount",
      "type": "error"
    },
    {
      "inputs": [
        {
          "internalType": "uint256",
          "name": "requestID",
          "type": "uint256"
        }
      ],
      "name": "RequestIDAlreadyCompleted",
      "type": "error"
    },
    {
      "inputs": [
        {
          "internalType": "address",
          "name": "sender",
          "type": "address"
        }
      ],
      "name": "SenderNotAPlayer",
      "type": "error"
    },
    {
      "inputs": [
        {
          "internalType": "uint256",
          "name": "requestID",
          "type": "uint256"
        }
      ],
      "name": "UnknownCellDecryptionRequestID",
      "type": "error"
    },
    {
      "anonymous": false,
      "inputs": [
        {
          "indexed": true,
          "internalType": "address",
          "name": "player",
          "type": "address"
        },
        {
          "indexed": true,
          "internalType": "uint8",
          "name": "cellIndex",
          "type": "uint8"
        },
        {
          "indexed": false,
          "internalType": "uint8",
          "name": "cellValue",
          "type": "uint8"
        },
        {
          "indexed": false,
          "internalType": "bool",
          "name": "victory",
          "type": "bool"
        }
      ],
      "name": "CellRevealed",
      "type": "event"
    },
    {
      "anonymous": false,
      "inputs": [
        {
          "indexed": true,
          "internalType": "address",
          "name": "previousOwner",
          "type": "address"
        },
        {
          "indexed": true,
          "internalType": "address",
          "name": "newOwner",
          "type": "address"
        }
      ],
      "name": "OwnershipTransferStarted",
      "type": "event"
    },
    {
      "anonymous": false,
      "inputs": [
        {
          "indexed": true,
          "internalType": "address",
          "name": "previousOwner",
          "type": "address"
        },
        {
          "indexed": true,
          "internalType": "address",
          "name": "newOwner",
          "type": "address"
        }
      ],
      "name": "OwnershipTransferred",
      "type": "event"
    },
    {
      "inputs": [],
      "name": "acceptOwnership",
      "outputs": [],
      "stateMutability": "nonpayable",
      "type": "function"
    },
    {
      "inputs": [
        {
          "internalType": "address",
          "name": "player",
          "type": "address"
        }
      ],
      "name": "boardOf",
      "outputs": [
        {
          "internalType": "euint256",
          "name": "",
          "type": "uint256"
        }
      ],
      "stateMutability": "view",
      "type": "function"
    },
    {
      "inputs": [
        {
          "internalType": "uint256",
          "name": "requestID",
          "type": "uint256"
        },
        {
          "internalType": "uint8",
          "name": "clearCell",
          "type": "uint8"
        },
        {
          "internalType": "bool",
          "name": "clearVictory",
          "type": "bool"
        }
      ],
      "name": "callbackDecryptCell",
      "outputs": [],
      "stateMutability": "nonpayable",
      "type": "function"
    },
    {
      "inputs": [],
      "name": "deterministic",
      "outputs": [
        {
          "internalType": "bool",
          "name": "",
          "type": "bool"
        }
      ],
      "stateMutability": "view",
      "type": "function"
    },
    {
      "inputs": [],
      "name": "deterministicGameCount",
      "outputs": [
        {
          "internalType": "uint256",
          "name": "",
          "type": "uint256"
        }
      ],
      "stateMutability": "view",
      "type": "function"
    },
    {
      "inputs": [],
      "name": "gatewayDelayInSec",
      "outputs": [
        {
          "internalType": "uint64",
          "name": "",
          "type": "uint64"
        }
      ],
      "stateMutability": "pure",
      "type": "function"
    },
    {
      "inputs": [],
      "name": "getClearCache256x4",
      "outputs": [
        {
          "internalType": "uint256",
          "name": "block0",
          "type": "uint256"
        },
        {
          "internalType": "uint256",
          "name": "block1",
          "type": "uint256"
        }
      ],
      "stateMutability": "view",
      "type": "function"
    },
    {
      "inputs": [
        {
          "internalType": "uint8",
          "name": "cellIndex",
          "type": "uint8"
        }
      ],
      "name": "getClearCell",
      "outputs": [
        {
          "internalType": "uint8",
          "name": "clearCell",
          "type": "uint8"
        }
      ],
      "stateMutability": "view",
      "type": "function"
    },
    {
      "inputs": [
        {
          "internalType": "address",
          "name": "player",
          "type": "address"
        },
        {
          "internalType": "uint8",
          "name": "cellIndex",
          "type": "uint8"
        }
      ],
      "name": "getDebugClearCellsPlusOne",
      "outputs": [
        {
          "internalType": "uint8",
          "name": "",
          "type": "uint8"
        }
      ],
      "stateMutability": "view",
      "type": "function"
    },
    {
      "inputs": [],
      "name": "getEncryptedCache256x4",
      "outputs": [
        {
          "internalType": "euint256",
          "name": "eBlock0",
          "type": "uint256"
        },
        {
          "internalType": "euint256",
          "name": "eBlock1",
          "type": "uint256"
        }
      ],
      "stateMutability": "view",
      "type": "function"
    },
    {
      "inputs": [],
      "name": "getFirstCellIndex",
      "outputs": [
        {
          "internalType": "uint8",
          "name": "",
          "type": "uint8"
        }
      ],
      "stateMutability": "view",
      "type": "function"
    },
    {
      "inputs": [
        {
          "internalType": "address",
          "name": "player",
          "type": "address"
        },
        {
          "internalType": "uint8",
          "name": "cellIndex",
          "type": "uint8"
        }
      ],
      "name": "isClearCellAvailable",
      "outputs": [
        {
          "internalType": "bool",
          "name": "",
          "type": "bool"
        }
      ],
      "stateMutability": "view",
      "type": "function"
    },
    {
      "inputs": [],
      "name": "isDebug",
      "outputs": [
        {
          "internalType": "bool",
          "name": "",
          "type": "bool"
        }
      ],
      "stateMutability": "pure",
      "type": "function"
    },
    {
      "inputs": [],
      "name": "isItAVictory",
      "outputs": [
        {
          "internalType": "bool",
          "name": "",
          "type": "bool"
        }
      ],
      "stateMutability": "view",
      "type": "function"
    },
    {
      "inputs": [],
      "name": "isItGameOver",
      "outputs": [
        {
          "internalType": "bool",
          "name": "",
          "type": "bool"
        }
      ],
      "stateMutability": "view",
      "type": "function"
    },
    {
      "inputs": [
        {
          "internalType": "address",
          "name": "player",
          "type": "address"
        }
      ],
      "name": "isPlayer",
      "outputs": [
        {
          "internalType": "bool",
          "name": "",
          "type": "bool"
        }
      ],
      "stateMutability": "view",
      "type": "function"
    },
    {
      "inputs": [],
      "name": "moves",
      "outputs": [
        {
          "internalType": "uint256",
          "name": "",
          "type": "uint256"
        }
      ],
      "stateMutability": "view",
      "type": "function"
    },
    {
      "inputs": [
        {
          "internalType": "address",
          "name": "player",
          "type": "address"
        },
        {
          "internalType": "uint8",
          "name": "firstCellIndex",
          "type": "uint8"
        },
        {
          "internalType": "einput",
          "name": "inputHandle",
          "type": "bytes32"
        },
        {
          "internalType": "bytes",
          "name": "inputProof",
          "type": "bytes"
        }
      ],
      "name": "newCustomGame",
      "outputs": [],
      "stateMutability": "nonpayable",
      "type": "function"
    },
    {
      "inputs": [
        {
          "internalType": "uint8",
          "name": "level",
          "type": "uint8"
        },
        {
          "internalType": "uint8",
          "name": "firstCellIndex",
          "type": "uint8"
        }
      ],
      "name": "newGame",
      "outputs": [],
      "stateMutability": "nonpayable",
      "type": "function"
    },
    {
      "inputs": [],
      "name": "owner",
      "outputs": [
        {
          "internalType": "address",
          "name": "",
          "type": "address"
        }
      ],
      "stateMutability": "view",
      "type": "function"
    },
    {
      "inputs": [],
      "name": "pendingDecryptionRequest",
      "outputs": [
        {
          "internalType": "uint8",
          "name": "cellIndexPlusOne",
          "type": "uint8"
        },
        {
          "internalType": "bool",
          "name": "expired",
          "type": "bool"
        },
        {
          "internalType": "uint256",
          "name": "maxBlockTimestamp",
          "type": "uint256"
        }
      ],
      "stateMutability": "view",
      "type": "function"
    },
    {
      "inputs": [],
      "name": "pendingOwner",
      "outputs": [
        {
          "internalType": "address",
          "name": "",
          "type": "address"
        }
      ],
      "stateMutability": "view",
      "type": "function"
    },
    {
      "inputs": [
        {
          "internalType": "address",
          "name": "player",
          "type": "address"
        }
      ],
      "name": "playerHasGameInProgress",
      "outputs": [
        {
          "internalType": "bool",
          "name": "",
          "type": "bool"
        }
      ],
      "stateMutability": "view",
      "type": "function"
    },
    {
      "inputs": [],
      "name": "renounceOwnership",
      "outputs": [],
      "stateMutability": "nonpayable",
      "type": "function"
    },
    {
      "inputs": [],
      "name": "resign",
      "outputs": [],
      "stateMutability": "nonpayable",
      "type": "function"
    },
    {
      "inputs": [
        {
          "internalType": "uint8",
          "name": "cellIndex",
          "type": "uint8"
        }
      ],
      "name": "revealCell",
      "outputs": [],
      "stateMutability": "nonpayable",
      "type": "function"
    },
    {
      "inputs": [
        {
          "internalType": "bool",
          "name": "enable",
          "type": "bool"
        }
      ],
      "name": "setDeterministicMode",
      "outputs": [],
      "stateMutability": "nonpayable",
      "type": "function"
    },
    {
      "inputs": [],
      "name": "size",
      "outputs": [
        {
          "internalType": "uint8",
          "name": "rows",
          "type": "uint8"
        },
        {
          "internalType": "uint8",
          "name": "cols",
          "type": "uint8"
        }
      ],
      "stateMutability": "pure",
      "type": "function"
    },
    {
      "inputs": [
        {
          "internalType": "address",
          "name": "newOwner",
          "type": "address"
        }
      ],
      "name": "transferOwnership",
      "outputs": [],
      "stateMutability": "nonpayable",
      "type": "function"
    }
  ],
  "transactionHash": "0x1ac3f3ecb13742b8938a5886a85a5209c03cb5845221156590c74f32e129b987",
  "args": [
    "0x37AC010c1c566696326813b840319B58Bb5840E4"
  ],
  "numDeployments": 5,
  "solcInputHash": "b529910e43c543d4744c9b723b94b6a4",
  "bytecode": "0x60e060405234801562000010575f80fd5b5060405162002d3038038062002d30833981016040819052620000339162000450565b806200019e620000d4604080516080810182525f808252602082018190529181018290526060810191909152506040805160808101825273fee8407e2f5e3ee68ad77cae98c434e637f516e5815273687408ab54661ba0b4aef3a44156c616c6955e07602082015273fb03be574d14c256d56f09a198b586bdfc0a9de291810191909152739d6891a6240d6130c54ae243d8005063d05fe14b606082015290565b80515f8051602062002d1083398151915280546001600160a01b03199081166001600160a01b039384161790915560208301517fed8d60e34876f751cc8b014c560745351147d9de11b9347c854e881b128ea6018054831691841691909117905560408301517fed8d60e34876f751cc8b014c560745351147d9de11b9347c854e881b128ea6028054831691841691909117905560608301517fed8d60e34876f751cc8b014c560745351147d9de11b9347c854e881b128ea6038054909216921691909117905550565b7f93ab6e17f2c461cce6ea5d4ec117e51dda77a64affc2b2c05f8cd440def0e70080546001600160a01b0319167333347831500f1e73f0cccbb95c9f86b94d7b11231790556001600160a01b0381166200021157604051631e4fbdf760e01b81525f600482015260240160405180910390fd5b6200021c8162000278565b50620002285f62000293565b60808190526200023890620002a7565b620002435f620002b3565b60a08190526200025390620002a7565b6200025e5f620002c1565b60c08190526200026e90620002a7565b5062000497565b50565b600b80546001600160a01b03191690556200027581620002cf565b5f620002a182600862000320565b92915050565b620002758130620003d7565b5f620002a182600262000320565b5f620002a182600162000320565b600a80546001600160a01b038381166001600160a01b0319831681179093556040519116919082907f8be0079c531659141344cd1fd0a4f28419497f9722a3daafe3b4186f6b6457e0905f90a35050565b5f805f8051602062002d108339815191526001810154604051631ce2e8d760e31b8152600481018790527fff0000000000000000000000000000000000000000000000000000000000000060f887901b1660248201529192506001600160a01b03169063e71746b8906044016020604051808303815f875af1158015620003a9573d5f803e3d5ffd5b505050506040513d601f19601f82011682018060405250810190620003cf91906200047f565b949350505050565b5f5f8051602062002d108339815191528054604051631974142760e21b8152600481018690526001600160a01b0385811660248301529293509116906365d0509c906044015f604051808303815f87803b15801562000434575f80fd5b505af115801562000447573d5f803e3d5ffd5b50505050505050565b5f6020828403121562000461575f80fd5b81516001600160a01b038116811462000478575f80fd5b9392505050565b5f6020828403121562000490575f80fd5b5051919050565b60805160a05160c051612854620004bc5f395f50505f61164801525f50506128545ff3fe608060405234801561000f575f80fd5b50600436106101c5575f3560e01c806369652fcf116100fe578063b5499c981161009e578063e30c39781161006e578063e30c397814610443578063ea6ffb5114610454578063f21aefd21461047b578063f2fde38b14610482575f80fd5b8063b5499c98146103da578063bc1f57b7146103ed578063d513c2dc146103f5578063dbd6d6e014610408575f80fd5b80637e5f8dca116100d95780637e5f8dca146103675780638da5cb5b1461037a578063949d225d1461039f578063a5305d4e146103b3575f80fd5b806369652fcf1461034f578063715018a61461035757806379ba50971461035f575f80fd5b806348e992a3116101695780635c4a9075116101445780635c4a9075146102e5578063604b6896146102f857806365a0cbbe1461031957806368d8e8c91461032c575f80fd5b806348e992a3146102b45780634babb2a3146102bf57806350e546c9146102d2575f80fd5b806335e0cb01116101a457806335e0cb01146102245780633c548c8e1461025c5780633ec14f4114610281578063406fe0f0146102a5575f80fd5b8062be8275146101c957806309c95e10146101ec57806329946f8e1461020f575b5f80fd5b335f908152600e60205260409020545b6040519081526020015b60405180910390f35b6101ff6101fa366004612472565b610495565b60405190151581526020016101e3565b61022261021d36600461249b565b6104b9565b005b335f90815260106020908152604080832083805290915280822054600183529120545b604080519283526020830191909152016101e3565b61026f61026a3660046124cc565b610508565b60405160ff90911681526020016101e3565b335f908152600e602052604090206002015460116201000090910460ff16146101ff565b604051607881526020016101e3565b600d5460ff166101ff565b6102226102cd3660046124f4565b6105f7565b6101d96102e0366004612472565b610613565b6101ff6102f3366004612472565b610633565b335f908152600e60205260409020600201546301000000900460ff1661026f565b61022261032736600461250d565b61063d565b335f908152600e6020526040902060020154601161010090910460ff16146101ff565b6102226108bf565b6102226108ca565b6102226108db565b6102226103753660046124cc565b61091c565b600a546001600160a01b03165b6040516001600160a01b0390911681526020016101e3565b60408051600b8082526020820152016101e3565b335f908152600f602090815260408083208380529091528082205460018352912054610247565b6101ff6103e8366004612546565b61099e565b600c546101d9565b610222610403366004612560565b6109b5565b61026f610416366004612546565b6001600160a01b03919091165f90815260136020908152604080832060ff94851684529091529020541690565b600b546001600160a01b0316610387565b61045c610af5565b6040805160ff90941684529115156020840152908201526060016101e3565b60016101ff565b610222610490366004612472565b610b7e565b6001600160a01b0381165f908152600e602052604081206001015415155b92915050565b6104c281610bfc565b5f6104cc82610c30565b600d549091505f9060ff166104ea576104e58483610c4c565b6104f4565b6104f48483610cd7565b905061050233858386610e61565b50505050565b335f908152600e602052604081206001015461053e57604051635359cc2b60e11b81523360048201526024015b60405180910390fd5b335f908152600e602052604090206002015460101961010090910460ff160161057c5760405163f556ad7760e01b8152336004820152602401610535565b5f6105873384610f3e565b90508060ff165f036105b157604051633c7be8bb60e11b815260ff84166004820152602401610535565b6105bd60096001612607565b60ff168160ff16106105e5576040516337874aa760e11b815260036004820152602401610535565b6105f0600182612620565b9392505050565b6105ff610fd1565b600d805460ff191682151517905550565b50565b6001600160a01b0381165f908152600e60205260408120600101546104b3565b5f6104b382610ffe565b7f93ab6e17f2c461cce6ea5d4ec117e51dda77a64affc2b2c05f8cd440def0e700546001600160a01b03163314610672575f80fd5b5f601181610681866001612639565b815260208101919091526040015f2060038101549091506001600160a01b0316806106c25760405163a8f0b17b60e01b815260048101869052602401610535565b6106cd856001612639565b6001600160a01b0382165f9081526012602052604090205414610706576040516337874aa760e11b815260056004820152602401610535565b6003820154600160a01b900460ff165f819003610739576040516337874aa760e11b815260056004820152602401610535565b6001600160a01b0382165f908152601260205260408120819055601190610761886001612639565b815260208082019290925260409081015f908120818155600181018290556002810182905560030180546001600160a81b03191690556001600160a01b0385168152600e9092529020600960ff8716106107cb5760028101805461ff001916611100179055600995505b6107e0836107da600185612620565b8861106c565b846107ec5760ff6107ef565b60115b60028201805460ff92909216620100000262ff000019909216919091179055610819866001612607565b6001600160a01b0384165f9081526013602052604081209061083c600186612620565b60ff908116825260208201929092526040015f20805460ff19169290911691909117905561086b600183612620565b6040805160ff8981168252881515602083015282519316926001600160a01b038716927f22e7a4ef212821e33e3d7b990c954123a3acccce6206c78ccfef4b84ab7a6ee0928290030190a350505050505050565b6108c83361113c565b565b6108d2610fd1565b6108c85f611238565b600b5433906001600160a01b031681146109135760405163118cdaa760e01b81526001600160a01b0382166004820152602401610535565b61061081611238565b335f908152600e602052604090206001015461094d57604051635359cc2b60e11b8152336004820152602401610535565b335f908152600e602052604090206002015460101961010090910460ff160161098b5760405163f556ad7760e01b8152336004820152602401610535565b61099481610bfc565b610610338261125e565b5f806109aa8484610f3e565b60ff16119392505050565b6109be84610bfc565b336001600160a01b03861603610a165760405162461bcd60e51b815260206004820152601e60248201527f506c61796572206d757374206469666665722066726f6d2073656e64657200006044820152606401610535565b610a1f85610ffe565b15610a6c5760405162461bcd60e51b815260206004820152601d60248201527f506c617965722068617320612067616d6520696e2070726f67726573730000006044820152606401610535565b5f610ade610aaf8585858080601f0160208091040260200160405190810160405280939291908181526020018383808284375f920191909152506114bf92505050565b610ab887610c30565b7e01555555555555555555555555555555555555555555555555555555555555166114cc565b9050610aed8660ff8388610e61565b505050505050565b335f908152600e602052604081206001015481908190610b2a57604051635359cc2b60e11b8152336004820152602401610535565b335f9081526012602052604081205490819003610b4e57505f938493508392509050565b5f9081526011602052604090206003810154600290910154600160a01b90910460ff169442821094509092509050565b610b86610fd1565b600b80546001600160a01b03831673ffffffffffffffffffffffffffffffffffffffff199091168117909155610bc4600a546001600160a01b031690565b6001600160a01b03167f38d16b8cac22d99fc7c124b9cd0de2d3fa1faef420bfe791d8c362d765e2270060405160405180910390a350565b610c07600b8061264c565b60ff168160ff161061061057604051627cdcc560e01b815260ff82166004820152602401610535565b5f610c3c60028361264c565b600360ff919091161b1992915050565b5f610c65610c586114ea565b610c606114ea565b6114fa565b905060028360ff161015610c8257610c7f81610c606114ea565b90505b8260ff16600114610cac57610ca981610c60610c9c6114ea565b610ca46114ea565b611528565b90505b6105f081837e01555555555555555555555555555555555555555555555555555555555555166114cc565b600c5460408051602081019290925260ff841690820152600160608201525f90819060800160408051808303601f190181528282528051602091820120600c549184019190915260ff8716918301919091525f606083015290608001604051602081830303815290604052805190602001205f1c16905060028460ff161015610d9557600c5460408051602081019290925260ff8616908201526003606082015260800160408051601f198184030181529190528051602090910120165b8360ff16600114610e1457600c5460408051602081019290925260ff8616908201526004606082015260800160408051808303601f190181528282528051602091820120600c549184019190915260ff871691830191909152600260608301529060800160408051601f19818403018152919052805160209091012017165b82167e0155555555555555555555555555555555555555555555555555555555555516610e4081611556565b91506001600c5f828254610e549190612639565b9091555091949350505050565b610e6a82611562565b610e8582610e80600a546001600160a01b031690565b61156c565b610e8e8461113c565b6040805160c0810182525f808252602080830195865260ff968716838501908152606084018881526080850189815296891660a086019081526001600160a01b03909a168452600e909252939091209151825593516001820155905160029091018054935192519551851663010000000263ff0000001996861662010000029690961663ffff0000199386166101000261ffff199095169290951691909117929092171691909117919091179055565b5f610f4882610bfc565b5f610f54604084612683565b90505f610f626040856126a4565b905060018260ff161115610f8c576040516337874aa760e11b815260026004820152602401610535565b600f610f9982600461264c565b6001600160a01b039096165f908152600f6020908152604080832060ff9687168452909152902054959092169490941c169392505050565b600a546001600160a01b031633146108c85760405163118cdaa760e01b8152336004820152602401610535565b6001600160a01b0381165f908152600e60205260408120600181015461102657505f92915050565b600281015460101961010090910460ff160161104457505f92915050565b60028101546010196201000090910460ff160161106357505f92915050565b50600192915050565b61107582610bfc565b600f8160ff16111561109d576040516337874aa760e11b815260016004820152602401610535565b5f6110a9604084612683565b90505f6110b76040856126a4565b905060018260ff1611156110e1576040516337874aa760e11b815260026004820152602401610535565b5f6110ed82600461264c565b60ff16600f6110fd866001612607565b6001600160a01b03989098165f908152600f6020908152604080832060ff98891684529091529020805491909816909416901b90921790945550505050565b6001600160a01b0381165f908152600e602052604090206001015415610610576001600160a01b0381165f818152600e6020908152604080832083815560018082018590556002909101805463ffffffff19169055601083528184208480528352818420849055808452818420849055848452600f8352818420848052835281842084905583528083208390559282526012905220541561121f576001600160a01b0381165f9081526012602090815260408083205483526011909152812081815560018101829055600281019190915560030180546001600160a81b03191690555b6001600160a01b03165f90815260126020526040812055565b600b805473ffffffffffffffffffffffffffffffffffffffff191690556106108161157a565b6001600160a01b0382165f908152600e60205260408120906112808484610f3e565b905060ff8116156112a9576040516336ec01fd60e11b815260ff84166004820152602401610535565b6001600160a01b0384165f9081526012602052604081205481908015611413575f81815260116020526040812060038101549091600160a01b90910460ff169003611309576040516337874aa760e11b8152600481810152602401610535565b600381015461132f90879061132a90600190600160a01b900460ff16612620565b6115d8565b61134f576040516337874aa760e11b815260066004820152602401610535565b8060020154421161139c57600381015461137590600190600160a01b900460ff16612620565b6040516368403ead60e01b815260ff91821660048201529088166024820152604401610535565b60038101546113b790600190600160a01b900460ff16612620565b81546001928301546001600160a01b038b165f908152601260209081526040808320839055878352601190915281208181559485018190556002850155600390930180546001600160a81b0319169055909750935091506114aa565b61141d85876115d8565b1561143e576040516337874aa760e11b815260066004820152602401610535565b61144885876115fe565b611458878660010154885f61161e565b50809350506114966114718660010154875f01546117fb565b7e01555555555555555555555555555555555555555555555555555555555555611819565b91506114a183611562565b6114aa82611562565b6114b687878585611837565b50505050505050565b5f6105f0838360086119dc565b5f826114de576114db5f611556565b92505b6105f083836001611ada565b5f6114f56008611b97565b905090565b5f8261150c576115095f611556565b92505b8161151d5761151a5f611556565b91505b6105f083835f611ada565b5f8261153a576115375f611556565b92505b8161154b576115485f611556565b91505b6105f083835f611c23565b5f6104b3826008611c9a565b6106108130611d40565b6115768282611d40565b5050565b600a80546001600160a01b0383811673ffffffffffffffffffffffffffffffffffffffff19831681179093556040519116919082907f8be0079c531659141344cd1fd0a4f28419497f9722a3daafe3b4186f6b6457e0905f90a35050565b5f60036115e660028461264c565b60ff16845f0154901c1660ff16600114905092915050565b61160960028261264c565b8254600160ff929092169190911b1790915550565b5f8061162984610bfc565b5f8061163486611dad565b915091505f611644888484611dce565b90507f0000000000000000000000000000000000000000000000000000000000000000808060ff86161561168a576116878b611681600189612620565b87611dce565b91505b6116966001600b612620565b60ff168660ff1610156116b5576116b28b611681886001612607565b90505b6116c8816116c38685611e20565b611e20565b92505f6116de6116d785611e4e565b6003611e5a565b90505f6116f76116d76116f2876002611e7b565b611e4e565b90506117038183611e9c565b99505f8760ff16118015611727575061171e6001600b612620565b60ff168760ff16105b1561174e575f61173e6116d76116f2886004611e7b565b905061174a8b82611e9c565b9a50505b5050505050851561178d578160ff165f036117755761176e816003611ebc565b935061178d565b61178a611783826002611e7b565b6003611ebc565b93505b5f61179782611e4e565b90505f60ff8416156117b3576117ae826002611ecb565b6117be565b6117be826003611e5a565b90506117ca8782611eda565b96506117e0876117db836003611efa565b611eda565b96506117ed8b8a89611f1b565b505050505094509492505050565b5f8261180d5761180a5f611556565b92505b6105f08383600161201a565b5f8261182b576118285f611556565b92505b6105f083836001612091565b61184083610bfc565b6001600160a01b0384165f9081526012602052604090205415611879576040516337874aa760e11b815260056004820152602401610535565b6040805160028082526060820183525f9260208301908036833701905050905082815f815181106118ac576118ac6126c5565b602090810291909101015281816001815181106118cb576118cb6126c5565b60209081029190910101525f6118f5826332d065df60e11b836118ef607842612639565b5f612108565b9050611902816001612639565b6001600160a01b0387165f9081526012602090815260409182902092909255805160a081018252868152918201859052810161193f607842612639565b81526001600160a01b038816602082015260400161195e876001612607565b60ff16905260115f611971846001612639565b815260208082019290925260409081015f2083518155918301516001830155820151600282015560608201516003909101805460809093015160ff16600160a01b026001600160a81b03199093166001600160a01b0390921691909117919091179055505050505050565b5f80516020612828833981519152546040516302e817ff60e41b81525f915f80516020612808833981519152916001600160a01b0390911690632e817ff090611a339088903390899060f88a901b906004016126d9565b6020604051808303815f875af1158015611a4f573d5f803e3d5ffd5b505050506040513d601f19601f82011682018060405250810190611a73919061274a565b81546040516346ce4e4960e11b8152600481018390523360248201529193506001600160a01b031690638d9c9c92906044015f604051808303815f87803b158015611abc575f80fd5b505af1158015611ace573d5f803e3d5ffd5b50505050509392505050565b5f808215611aed5750600160f81b611af0565b505f5b5f8051602061282883398151915254604051630ccd46b160e31b815260048101879052602481018690526001600160f81b0319831660448201525f80516020612808833981519152916001600160a01b03169063666a3588906064015b6020604051808303815f875af1158015611b69573d5f803e3d5ffd5b505050506040513d601f19601f82011682018060405250810190611b8d919061274a565b9695505050505050565b5f805f80516020612808833981519152600181015460405163480694a760e11b81526001600160f81b031960f887901b1660048201529192506001600160a01b03169063900d294e906024016020604051808303815f875af1158015611bff573d5f803e3d5ffd5b505050506040513d601f19601f820116820180604052508101906105f0919061274a565b5f808215611c365750600160f81b611c39565b505f5b5f8051602061282883398151915254604051633b1015f760e21b815260048101879052602481018690526001600160f81b0319831660448201525f80516020612808833981519152916001600160a01b03169063ec4057dc90606401611b4d565b5f8051602061282883398151915254604051631ce2e8d760e31b81526004810184905260f883901b6001600160f81b03191660248201525f915f80516020612808833981519152916001600160a01b039091169063e71746b8906044015b6020604051808303815f875af1158015611d14573d5f803e3d5ffd5b505050506040513d601f19601f82011682018060405250810190611d38919061274a565b949350505050565b5f5f805160206128088339815191528054604051631974142760e21b8152600481018690526001600160a01b0385811660248301529293509116906365d0509c906044015f604051808303815f87803b158015611d9b575f80fd5b505af11580156114b6573d5f803e3d5ffd5b5f80611dba600b84612683565b9150611dc7600b846126a4565b9050915091565b5f8160ff165f03611e0557611dfe611df7611df286611ded875f61221f565b612242565b612251565b600f611ebc565b90506105f0565b611d38611df285611ded86611e1b600188612620565b61221f565b5f82611e3257611e2f5f61225d565b92505b81611e4357611e405f61225d565b91505b6105f083835f612269565b5f6104b38260016122e0565b5f82611e6c57611e695f612342565b92505b6105f0838360ff166001611ada565b5f82611e8d57611e8a5f61225d565b92505b6105f0838360ff16600161234e565b5f82611eae57611eab5f612342565b92505b81611e4357611e405f612342565b5f82611e6c57611e695f61225d565b5f82611e8d57611e8a5f612342565b5f82611eec57611ee95f612342565b92505b8161154b576115485f612342565b5f82611f0c57611f095f612342565b92505b6105f0838360ff1660016123c5565b611f2482610bfc565b5f611f30604084612683565b90505f611f3e6040856126a4565b905060018260ff161115611f68576040516337874aa760e11b815260026004820152602401610535565b5f611f85611f758561243c565b611f8084600461264c565b612448565b6001600160a01b0387165f90815260106020908152604080832060ff881684529091528120549192508115611fc357611fbe8284611528565b611fc5565b825b9050611fd081611562565b611fe681610e80600a546001600160a01b031690565b6001600160a01b039097165f90815260106020908152604080832060ff909716835295905293909320959095555050505050565b5f80821561202d5750600160f81b612030565b505f5b5f8051602061282883398151915254604051632c7d67b760e01b815260048101879052602481018690526001600160f81b0319831660448201525f80516020612808833981519152916001600160a01b031690632c7d67b790606401611b4d565b5f8082156120a45750600160f81b6120a7565b505f5b5f8051602061282883398151915254604051630d7c62eb60e31b815260048101879052602481018690526001600160f81b0319831660448201525f80516020612808833981519152916001600160a01b031690636be3175890606401611b4d565b5f80516020612808833981519152805460405163155f840160e21b81525f92916001600160a01b03169063557e100490612146908a9060040161279b565b5f604051808303815f87803b15801561215d575f80fd5b505af115801561216f573d5f803e3d5ffd5b505050505f61219b7f93ab6e17f2c461cce6ea5d4ec117e51dda77a64affc2b2c05f8cd440def0e70090565b8054604051634c0d927760e01b81529192506001600160a01b031690634c0d9277906121d3908b908b908b908b908b906004016127ad565b6020604051808303815f875af11580156121ef573d5f803e3d5ffd5b505050506040513d601f19601f82011682018060405250810190612213919061274a565b98975050505050505050565b5f60028261222e600b8661264c565b6122389190612607565b6105f0919061264c565b5f82611e8d57611e8a5f611556565b5f6104b38260026122e0565b5f6104b3826002611c9a565b5f80821561227c5750600160f81b61227f565b505f5b5f805160206128288339815191525460405163f953e42760e01b815260048101879052602481018690526001600160f81b0319831660448201525f80516020612808833981519152916001600160a01b03169063f953e42790606401611b4d565b5f805160206128288339815191525460405163025f346960e51b81526004810184905260f883901b6001600160f81b03191660248201525f915f80516020612808833981519152916001600160a01b0390911690634be68d2090604401611cf8565b5f6104b3826001611c9a565b5f8082156123615750600160f81b612364565b505f5b5f8051602061282883398151915254604051633bb860cf60e21b815260048101879052602481018690526001600160f81b0319831660448201525f80516020612808833981519152916001600160a01b03169063eee1833c90606401611b4d565b5f8082156123d85750600160f81b6123db565b505f5b5f80516020612828833981519152546040516389a4314b60e01b815260048101879052602481018690526001600160f81b0319831660448201525f80516020612808833981519152916001600160a01b0316906389a4314b90606401611b4d565b5f6104b38260086122e0565b5f82611f0c57611f095f611556565b80356001600160a01b038116811461246d575f80fd5b919050565b5f60208284031215612482575f80fd5b6105f082612457565b803560ff8116811461246d575f80fd5b5f80604083850312156124ac575f80fd5b6124b58361248b565b91506124c36020840161248b565b90509250929050565b5f602082840312156124dc575f80fd5b6105f08261248b565b8035801515811461246d575f80fd5b5f60208284031215612504575f80fd5b6105f0826124e5565b5f805f6060848603121561251f575f80fd5b8335925061252f6020850161248b565b915061253d604085016124e5565b90509250925092565b5f8060408385031215612557575f80fd5b6124b583612457565b5f805f805f60808688031215612574575f80fd5b61257d86612457565b945061258b6020870161248b565b935060408601359250606086013567ffffffffffffffff808211156125ae575f80fd5b818801915088601f8301126125c1575f80fd5b8135818111156125cf575f80fd5b8960208285010111156125e0575f80fd5b9699959850939650602001949392505050565b634e487b7160e01b5f52601160045260245ffd5b60ff81811683821601908111156104b3576104b36125f3565b60ff82811682821603908111156104b3576104b36125f3565b808201808211156104b3576104b36125f3565b60ff8181168382160290811690818114612668576126686125f3565b5092915050565b634e487b7160e01b5f52601260045260245ffd5b5f60ff8316806126955761269561266f565b8060ff84160491505092915050565b5f60ff8316806126b6576126b661266f565b8060ff84160691505092915050565b634e487b7160e01b5f52603260045260245ffd5b8481525f60206001600160a01b03861660208401526080604084015284518060808501525f5b8181101561271b5786810183015185820160a0015282016126ff565b505f60a0828601015260a0601f19601f8301168501019250505060ff60f81b8316606083015295945050505050565b5f6020828403121561275a575f80fd5b5051919050565b5f815180845260208085019450602084015f5b8381101561279057815187529582019590820190600101612774565b509495945050505050565b602081525f6105f06020830184612761565b60a081525f6127bf60a0830188612761565b7fffffffff000000000000000000000000000000000000000000000000000000009690961660208301525060408101939093526060830191909152151560809091015291905056feed8d60e34876f751cc8b014c560745351147d9de11b9347c854e881b128ea600ed8d60e34876f751cc8b014c560745351147d9de11b9347c854e881b128ea601a164736f6c6343000818000aed8d60e34876f751cc8b014c560745351147d9de11b9347c854e881b128ea600",
  "devdoc": {
    "errors": {
      "OwnableInvalidOwner(address)": [
        {
          "details": "The owner is not a valid owner account. (eg. `address(0)`)"
        }
      ],
      "OwnableUnauthorizedAccount(address)": [
        {
          "details": "The caller account is not authorized to perform an operation."
        }
      ]
    },
    "events": {
      "CellRevealed(address,uint8,uint8,bool)": {
        "details": "Emitted when a cell revealed by `player` using `revealCell` is successfully decrypted by the Gateway.      `victory` indicates whether the player won the game with this reveal. If `cellIndex` equals 9 then      the player lost the game."
      }
    },
    "kind": "dev",
    "methods": {
      "acceptOwnership()": {
        "details": "The new owner accepts the ownership transfer."
      },
      "boardOf(address)": {
        "details": "Returns the encrypted game board of the current game played by the specified `player`.      The board is stored on a single 256bits integer."
      },
      "callbackDecryptCell(uint256,uint8,bool)": {
        "details": "fhEVM Gateway callback function."
      },
      "getClearCache256x4()": {
        "details": "Returns the caller's clear cache consisting of two 256-bit blocks.      Each block contains 64 packed 4-bit values, allowing efficient storage and retrieval of small data entries.",
        "returns": {
          "block0": "The first 256-bit clear block with packed 4-bit values.",
          "block1": "The second 256-bit clear block with packed 4-bit values."
        }
      },
      "getClearCell(uint8)": {
        "params": {
          "cellIndex": "The index of the cell to retrieve."
        },
        "returns": {
          "clearCell": "A value representing the cell content:         - 08: Number of neighboring bombs.         - 9: Cell contains a bomb."
        }
      },
      "getDebugClearCellsPlusOne(address,uint8)": {
        "details": "DEBUG=true. Helper to identify potential bug in the `_clearCache256x4` mapping"
      },
      "getEncryptedCache256x4()": {
        "details": "DEBUG=true. Returns the caller's encrypted cache consisting of two 256-bit blocks.      Each block contains 64 packed 4-bit values, allowing efficient storage and retrieval of small data entries.",
        "returns": {
          "eBlock0": "The first 256-bit encrypted block with packed 4-bit values.",
          "eBlock1": "The second 256-bit encrypted block with packed 4-bit values."
        }
      },
      "isClearCellAvailable(address,uint8)": {
        "params": {
          "cellIndex": "The index of the cell to verify.",
          "player": "The address of the player whose game board is being checked."
        },
        "returns": {
          "_0": "`true` if the cell has been decrypted; otherwise, `false`."
        }
      },
      "newCustomGame(address,uint8,bytes32,bytes)": {
        "params": {
          "firstCellIndex": "The index of the first cell to be revealed on the board.",
          "inputHandle": "An fhEVM handle to the input data that contains the encrypted board.",
          "inputProof": "The fhEVM proof used to verify the validity of the encrypted board.",
          "player": "The address of the player who will play the game."
        }
      },
      "newGame(uint8,uint8)": {
        "details": "Validates the `firstCellIndex` to ensure it's within bounds, and then creates a new game board      based on the selected difficulty and mode (deterministic or random). The game is then initialized      for the caller.",
        "params": {
          "firstCellIndex": "The index of the first cell to be revealed at the start of the game.                        The index must be within the valid range of the board.",
          "level": "The difficulty level that influences the number of `1`s on the board.              - level 0: ~9% of cells will be `1`              - level 1: ~14% of cells will be `1`              - level 2: ~20% of cells will be `1`"
        }
      },
      "owner()": {
        "details": "Returns the address of the current owner."
      },
      "pendingDecryptionRequest()": {
        "returns": {
          "cellIndexPlusOne": "The requested cell index plus one.         - > 0: A cell decryption request is pending (awaiting the gateway's response).         - 0: No active decryption request.",
          "expired": "`true` if the decryption request has expired; otherwise, `false`.",
          "maxBlockTimestamp": " The block timestamp after which the request expires."
        }
      },
      "pendingOwner()": {
        "details": "Returns the address of the pending owner."
      },
      "renounceOwnership()": {
        "details": "Leaves the contract without owner. It will not be possible to call `onlyOwner` functions. Can only be called by the current owner. NOTE: Renouncing ownership will leave the contract without an owner, thereby disabling any functionality that is only available to the owner."
      },
      "resign()": {
        "details": "Does not revert if the caller has no active game."
      },
      "revealCell(uint8)": {
        "details": "Reverts if:      - The caller has no active game in progress.      - The caller has already lost the game.      - The `cellIndex` is out of bounds.      - The cell has already been decrypted by the gateway.      - The cell has already been requested for decryption and the request is still pending (not expired).",
        "params": {
          "cellIndex": "The index of the cell to reveal."
        }
      },
      "transferOwnership(address)": {
        "details": "Starts the ownership transfer of the contract to a new account. Replaces the pending transfer if there is one. Can only be called by the current owner. Setting `newOwner` to the zero address is allowed; this can be used to cancel an initiated ownership transfer."
      }
    },
    "stateVariables": {
      "DEBUG": {
        "details": "DEBUG = `true`, the contract is compiled in debug mode.      DEBUG = `false`, the contract is compiled in release mode."
      },
      "_ZERO_EU256": {
        "details": "Encrypted 256 bits zero (uint256), precomputed for efficiency."
      },
      "_ZERO_EU4": {
        "details": "Encrypted 4 bits zero (uint4), precomputed for efficiency."
      },
      "_ZERO_EU8": {
        "details": "Encrypted 8 bits zero (uint8), precomputed for efficiency."
      },
      "_clearCache256x4": {
        "details": "Caches the cells successfully revealed and decrypted by a player in their current game.      Cells are encoded in 4-bit values, packed into 256-bit integers (64 cells per uint256).      For an 11x11 grid (121 cells), the cache uses 2 uint256 blocks.      Cell encoding:      - 0: Not decrypted      - 1: Empty (no neighboring bombs)      - 29: Number of neighboring bombs (18)      - 10: Bomb"
      },
      "_debugClearCellsPlusOne": {
        "details": "DEBUG=true. Helper to identify potential bug in the `_clearCache256x4` mapping"
      },
      "_deterministic": {
        "details": "If true, game boards are generated deterministically (debug only)."
      },
      "_deterministicGameCount": {
        "details": "Total number of deterministically generated games (debug only)."
      },
      "_encryptedCache256x4": {
        "details": "DEBUG=true. Encrypted version of `_clearCache256x4`"
      },
      "_games": {
        "details": "Tracks the current game associated with each player address. A player can play one game at a time."
      },
      "_playerToRequestIDPlusOne": {
        "details": "Maps each player to their active decryption request ID (`requestID + 1`) to distinguish valid      requests from null values."
      },
      "_requestIDPlusOneToRequest": {
        "details": "Tracks Gateway decryption request IDs.      Since `requestID` starts at zero, we store `requestID + 1` to distinguish an existing request      from a null (zero) value."
      }
    },
    "version": 1
  },
  "userdoc": {
    "kind": "user",
    "methods": {
      "deterministic()": {
        "notice": "Returns `true` if future games will be deterministically generated (debug only)."
      },
      "deterministicGameCount()": {
        "notice": "Returns the total number of deterministically generated games (debug only)."
      },
      "gatewayDelayInSec()": {
        "notice": "Returns constant Gateway callback delay in seconds."
      },
      "getClearCell(uint8)": {
        "notice": "Returns the decrypted value of the cell at `cellIndex` in the `player`'s current game board.         Reverts if:         - The caller is not an active player (no game in progress).         - The player has already lost the game.         - The cell has not been decrypted by the Gateway (no cached value)."
      },
      "getFirstCellIndex()": {
        "notice": "Returns the index of the first cell selected by the player to reveal at the start of the game.         To prevent an instant loss, this selected cell is automatically cleared of any bombs."
      },
      "isClearCellAvailable(address,uint8)": {
        "notice": "Returns `true` if the cell at `cellIndex` in the `player`'s current game board has been decrypted         by the Gateway."
      },
      "isDebug()": {
        "notice": "Returns `true` if the contract is compiled in debug mode; otherwise `false`."
      },
      "isItAVictory()": {
        "notice": "Returns `true` if the caller has won its game"
      },
      "isItGameOver()": {
        "notice": "Returns `true` if the caller has lost its game"
      },
      "isPlayer(address)": {
        "notice": "Returns `true` if the `player` is a registered player."
      },
      "moves()": {
        "notice": "Returns a 256-bit integer representing all the cells picked by the caller so far.         Each bit corresponds to a cell: if the bit is set, the cell has been revealed via `revealCell`;         if the bit is not set, the cell has not been picked yet.         Note that if the bit is set, it does not necessarily mean the cell has been decrypted."
      },
      "newCustomGame(address,uint8,bytes32,bytes)": {
        "notice": "Sets the `player`'s game board using an encrypted board created and sent by another account.         This is used for the Challenge mode, where a pre-generated board is provided for the player.         Reverts if the `player` has a game in progress."
      },
      "newGame(uint8,uint8)": {
        "notice": "Starts a new game for the caller, setting up a board based on the specified difficulty level         and first cell index. The board is generated either deterministically or randomly depending         on the current mode."
      },
      "pendingDecryptionRequest()": {
        "notice": "Returns information about the caller's current cell decryption request."
      },
      "playerHasGameInProgress(address)": {
        "notice": "Returns `true` if the `player` has an active game in progress, `false` otherwise."
      },
      "resign()": {
        "notice": "Allows the caller to resign from their current active game."
      },
      "revealCell(uint8)": {
        "notice": "Reveals the cell at `cellIndex` in the caller's game board.Important:         If the caller previously requested a cell decryption that has since expired, a new decryption         request will be sent using the **previous cell index** instead of the provided `cellIndex`.         This prevents the player from canceling a prior move by selecting a different cell after the         request expiration."
      },
      "setDeterministicMode(bool)": {
        "notice": "Allows the owner to enable or disable deterministic game generation mode.         This flag controls whether future games will be generated deterministically (debugging only)."
      },
      "size()": {
        "notice": "Returns the Minesweeper board dimensions.         Board size is fixed and not customizable in the current implementation."
      }
    },
    "version": 1
  },
  "storageLayout": {
    "storage": [
      {
        "astId": 2998,
        "contract": "contracts/FHEMinesweeper.sol:FHEMinesweeper",
        "label": "paramsEBool",
        "offset": 0,
        "slot": "0",
        "type": "t_mapping(t_uint256,t_array(t_userDefinedValueType(ebool)5740)dyn_storage)"
      },
      {
        "astId": 3004,
        "contract": "contracts/FHEMinesweeper.sol:FHEMinesweeper",
        "label": "paramsEUint4",
        "offset": 0,
        "slot": "1",
        "type": "t_mapping(t_uint256,t_array(t_userDefinedValueType(euint4)5742)dyn_storage)"
      },
      {
        "astId": 3010,
        "contract": "contracts/FHEMinesweeper.sol:FHEMinesweeper",
        "label": "paramsEUint8",
        "offset": 0,
        "slot": "2",
        "type": "t_mapping(t_uint256,t_array(t_userDefinedValueType(euint8)5744)dyn_storage)"
      },
      {
        "astId": 3016,
        "contract": "contracts/FHEMinesweeper.sol:FHEMinesweeper",
        "label": "paramsEUint16",
        "offset": 0,
        "slot": "3",
        "type": "t_mapping(t_uint256,t_array(t_userDefinedValueType(euint16)5746)dyn_storage)"
      },
      {
        "astId": 3022,
        "contract": "contracts/FHEMinesweeper.sol:FHEMinesweeper",
        "label": "paramsEUint32",
        "offset": 0,
        "slot": "4",
        "type": "t_mapping(t_uint256,t_array(t_userDefinedValueType(euint32)5748)dyn_storage)"
      },
      {
        "astId": 3028,
        "contract": "contracts/FHEMinesweeper.sol:FHEMinesweeper",
        "label": "paramsEUint64",
        "offset": 0,
        "slot": "5",
        "type": "t_mapping(t_uint256,t_array(t_userDefinedValueType(euint64)5750)dyn_storage)"
      },
      {
        "astId": 3034,
        "contract": "contracts/FHEMinesweeper.sol:FHEMinesweeper",
        "label": "paramsEAddress",
        "offset": 0,
        "slot": "6",
        "type": "t_mapping(t_uint256,t_array(t_userDefinedValueType(eaddress)5756)dyn_storage)"
      },
      {
        "astId": 3039,
        "contract": "contracts/FHEMinesweeper.sol:FHEMinesweeper",
        "label": "paramsAddress",
        "offset": 0,
        "slot": "7",
        "type": "t_mapping(t_uint256,t_array(t_address)dyn_storage)"
      },
      {
        "astId": 3044,
        "contract": "contracts/FHEMinesweeper.sol:FHEMinesweeper",
        "label": "paramsUint256",
        "offset": 0,
        "slot": "8",
        "type": "t_mapping(t_uint256,t_array(t_uint256)dyn_storage)"
      },
      {
        "astId": 3049,
        "contract": "contracts/FHEMinesweeper.sol:FHEMinesweeper",
        "label": "requestedHandles",
        "offset": 0,
        "slot": "9",
        "type": "t_mapping(t_uint256,t_array(t_uint256)dyn_storage)"
      },
      {
        "astId": 8,
        "contract": "contracts/FHEMinesweeper.sol:FHEMinesweeper",
        "label": "_owner",
        "offset": 0,
        "slot": "10",
        "type": "t_address"
      },
      {
        "astId": 156,
        "contract": "contracts/FHEMinesweeper.sol:FHEMinesweeper",
        "label": "_pendingOwner",
        "offset": 0,
        "slot": "11",
        "type": "t_address"
      },
      {
        "astId": 370,
        "contract": "contracts/FHEMinesweeper.sol:FHEMinesweeper",
        "label": "_deterministicGameCount",
        "offset": 0,
        "slot": "12",
        "type": "t_uint256"
      },
      {
        "astId": 373,
        "contract": "contracts/FHEMinesweeper.sol:FHEMinesweeper",
        "label": "_deterministic",
        "offset": 0,
        "slot": "13",
        "type": "t_bool"
      },
      {
        "astId": 379,
        "contract": "contracts/FHEMinesweeper.sol:FHEMinesweeper",
        "label": "_games",
        "offset": 0,
        "slot": "14",
        "type": "t_mapping(t_address,t_struct(Game)342_storage)"
      },
      {
        "astId": 386,
        "contract": "contracts/FHEMinesweeper.sol:FHEMinesweeper",
        "label": "_clearCache256x4",
        "offset": 0,
        "slot": "15",
        "type": "t_mapping(t_address,t_mapping(t_uint8,t_uint256))"
      },
      {
        "astId": 394,
        "contract": "contracts/FHEMinesweeper.sol:FHEMinesweeper",
        "label": "_encryptedCache256x4",
        "offset": 0,
        "slot": "16",
        "type": "t_mapping(t_address,t_mapping(t_uint8,t_userDefinedValueType(euint256)5754))"
      },
      {
        "astId": 400,
        "contract": "contracts/FHEMinesweeper.sol:FHEMinesweeper",
        "label": "_requestIDPlusOneToRequest",
        "offset": 0,
        "slot": "17",
        "type": "t_mapping(t_uint256,t_struct(CellDecryptionRequest)355_storage)"
      },
      {
        "astId": 405,
        "contract": "contracts/FHEMinesweeper.sol:FHEMinesweeper",
        "label": "_playerToRequestIDPlusOne",
        "offset": 0,
        "slot": "18",
        "type": "t_mapping(t_address,t_uint256)"
      },
      {
        "astId": 412,
        "contract": "contracts/FHEMinesweeper.sol:FHEMinesweeper",
        "label": "_debugClearCellsPlusOne",
        "offset": 0,
        "slot": "19",
        "type": "t_mapping(t_address,t_mapping(t_uint8,t_uint8))"
      }
    ],
    "types": {
      "t_address": {
        "encoding": "inplace",
        "label": "address",
        "numberOfBytes": "20"
      },
      "t_array(t_address)dyn_storage": {
        "base": "t_address",
        "encoding": "dynamic_array",
        "label": "address[]",
        "numberOfBytes": "32"
      },
      "t_array(t_uint256)dyn_storage": {
        "base": "t_uint256",
        "encoding": "dynamic_array",
        "label": "uint256[]",
        "numberOfBytes": "32"
      },
      "t_array(t_userDefinedValueType(eaddress)5756)dyn_storage": {
        "base": "t_userDefinedValueType(eaddress)5756",
        "encoding": "dynamic_array",
        "label": "eaddress[]",
        "numberOfBytes": "32"
      },
      "t_array(t_userDefinedValueType(ebool)5740)dyn_storage": {
        "base": "t_userDefinedValueType(ebool)5740",
        "encoding": "dynamic_array",
        "label": "ebool[]",
        "numberOfBytes": "32"
      },
      "t_array(t_userDefinedValueType(euint16)5746)dyn_storage": {
        "base": "t_userDefinedValueType(euint16)5746",
        "encoding": "dynamic_array",
        "label": "euint16[]",
        "numberOfBytes": "32"
      },
      "t_array(t_userDefinedValueType(euint32)5748)dyn_storage": {
        "base": "t_userDefinedValueType(euint32)5748",
        "encoding": "dynamic_array",
        "label": "euint32[]",
        "numberOfBytes": "32"
      },
      "t_array(t_userDefinedValueType(euint4)5742)dyn_storage": {
        "base": "t_userDefinedValueType(euint4)5742",
        "encoding": "dynamic_array",
        "label": "euint4[]",
        "numberOfBytes": "32"
      },
      "t_array(t_userDefinedValueType(euint64)5750)dyn_storage": {
        "base": "t_userDefinedValueType(euint64)5750",
        "encoding": "dynamic_array",
        "label": "euint64[]",
        "numberOfBytes": "32"
      },
      "t_array(t_userDefinedValueType(euint8)5744)dyn_storage": {
        "base": "t_userDefinedValueType(euint8)5744",
        "encoding": "dynamic_array",
        "label": "euint8[]",
        "numberOfBytes": "32"
      },
      "t_bool": {
        "encoding": "inplace",
        "label": "bool",
        "numberOfBytes": "1"
      },
      "t_mapping(t_address,t_mapping(t_uint8,t_uint256))": {
        "encoding": "mapping",
        "key": "t_address",
        "label": "mapping(address => mapping(uint8 => uint256))",
        "numberOfBytes": "32",
        "value": "t_mapping(t_uint8,t_uint256)"
      },
      "t_mapping(t_address,t_mapping(t_uint8,t_uint8))": {
        "encoding": "mapping",
        "key": "t_address",
        "label": "mapping(address => mapping(uint8 => uint8))",
        "numberOfBytes": "32",
        "value": "t_mapping(t_uint8,t_uint8)"
      },
      "t_mapping(t_address,t_mapping(t_uint8,t_userDefinedValueType(euint256)5754))": {
        "encoding": "mapping",
        "key": "t_address",
        "label": "mapping(address => mapping(uint8 => euint256))",
        "numberOfBytes": "32",
        "value": "t_mapping(t_uint8,t_userDefinedValueType(euint256)5754)"
      },
      "t_mapping(t_address,t_struct(Game)342_storage)": {
        "encoding": "mapping",
        "key": "t_address",
        "label": "mapping(address => struct FHEMinesweeper.Game)",
        "numberOfBytes": "32",
        "value": "t_struct(Game)342_storage"
      },
      "t_mapping(t_address,t_uint256)": {
        "encoding": "mapping",
        "key": "t_address",
        "label": "mapping(address => uint256)",
        "numberOfBytes": "32",
        "value": "t_uint256"
      },
      "t_mapping(t_uint256,t_array(t_address)dyn_storage)": {
        "encoding": "mapping",
        "key": "t_uint256",
        "label": "mapping(uint256 => address[])",
        "numberOfBytes": "32",
        "value": "t_array(t_address)dyn_storage"
      },
      "t_mapping(t_uint256,t_array(t_uint256)dyn_storage)": {
        "encoding": "mapping",
        "key": "t_uint256",
        "label": "mapping(uint256 => uint256[])",
        "numberOfBytes": "32",
        "value": "t_array(t_uint256)dyn_storage"
      },
      "t_mapping(t_uint256,t_array(t_userDefinedValueType(eaddress)5756)dyn_storage)": {
        "encoding": "mapping",
        "key": "t_uint256",
        "label": "mapping(uint256 => eaddress[])",
        "numberOfBytes": "32",
        "value": "t_array(t_userDefinedValueType(eaddress)5756)dyn_storage"
      },
      "t_mapping(t_uint256,t_array(t_userDefinedValueType(ebool)5740)dyn_storage)": {
        "encoding": "mapping",
        "key": "t_uint256",
        "label": "mapping(uint256 => ebool[])",
        "numberOfBytes": "32",
        "value": "t_array(t_userDefinedValueType(ebool)5740)dyn_storage"
      },
      "t_mapping(t_uint256,t_array(t_userDefinedValueType(euint16)5746)dyn_storage)": {
        "encoding": "mapping",
        "key": "t_uint256",
        "label": "mapping(uint256 => euint16[])",
        "numberOfBytes": "32",
        "value": "t_array(t_userDefinedValueType(euint16)5746)dyn_storage"
      },
      "t_mapping(t_uint256,t_array(t_userDefinedValueType(euint32)5748)dyn_storage)": {
        "encoding": "mapping",
        "key": "t_uint256",
        "label": "mapping(uint256 => euint32[])",
        "numberOfBytes": "32",
        "value": "t_array(t_userDefinedValueType(euint32)5748)dyn_storage"
      },
      "t_mapping(t_uint256,t_array(t_userDefinedValueType(euint4)5742)dyn_storage)": {
        "encoding": "mapping",
        "key": "t_uint256",
        "label": "mapping(uint256 => euint4[])",
        "numberOfBytes": "32",
        "value": "t_array(t_userDefinedValueType(euint4)5742)dyn_storage"
      },
      "t_mapping(t_uint256,t_array(t_userDefinedValueType(euint64)5750)dyn_storage)": {
        "encoding": "mapping",
        "key": "t_uint256",
        "label": "mapping(uint256 => euint64[])",
        "numberOfBytes": "32",
        "value": "t_array(t_userDefinedValueType(euint64)5750)dyn_storage"
      },
      "t_mapping(t_uint256,t_array(t_userDefinedValueType(euint8)5744)dyn_storage)": {
        "encoding": "mapping",
        "key": "t_uint256",
        "label": "mapping(uint256 => euint8[])",
        "numberOfBytes": "32",
        "value": "t_array(t_userDefinedValueType(euint8)5744)dyn_storage"
      },
      "t_mapping(t_uint256,t_struct(CellDecryptionRequest)355_storage)": {
        "encoding": "mapping",
        "key": "t_uint256",
        "label": "mapping(uint256 => struct FHEMinesweeper.CellDecryptionRequest)",
        "numberOfBytes": "32",
        "value": "t_struct(CellDecryptionRequest)355_storage"
      },
      "t_mapping(t_uint8,t_uint256)": {
        "encoding": "mapping",
        "key": "t_uint8",
        "label": "mapping(uint8 => uint256)",
        "numberOfBytes": "32",
        "value": "t_uint256"
      },
      "t_mapping(t_uint8,t_uint8)": {
        "encoding": "mapping",
        "key": "t_uint8",
        "label": "mapping(uint8 => uint8)",
        "numberOfBytes": "32",
        "value": "t_uint8"
      },
      "t_mapping(t_uint8,t_userDefinedValueType(euint256)5754)": {
        "encoding": "mapping",
        "key": "t_uint8",
        "label": "mapping(uint8 => euint256)",
        "numberOfBytes": "32",
        "value": "t_userDefinedValueType(euint256)5754"
      },
      "t_struct(CellDecryptionRequest)355_storage": {
        "encoding": "inplace",
        "label": "struct FHEMinesweeper.CellDecryptionRequest",
        "members": [
          {
            "astId": 345,
            "contract": "contracts/FHEMinesweeper.sol:FHEMinesweeper",
            "label": "eCell",
            "offset": 0,
            "slot": "0",
            "type": "t_userDefinedValueType(euint4)5742"
          },
          {
            "astId": 348,
            "contract": "contracts/FHEMinesweeper.sol:FHEMinesweeper",
            "label": "eVictory",
            "offset": 0,
            "slot": "1",
            "type": "t_userDefinedValueType(ebool)5740"
          },
          {
            "astId": 350,
            "contract": "contracts/FHEMinesweeper.sol:FHEMinesweeper",
            "label": "delay",
            "offset": 0,
            "slot": "2",
            "type": "t_uint256"
          },
          {
            "astId": 352,
            "contract": "contracts/FHEMinesweeper.sol:FHEMinesweeper",
            "label": "player",
            "offset": 0,
            "slot": "3",
            "type": "t_address"
          },
          {
            "astId": 354,
            "contract": "contracts/FHEMinesweeper.sol:FHEMinesweeper",
            "label": "cellIndexPlusOne",
            "offset": 20,
            "slot": "3",
            "type": "t_uint8"
          }
        ],
        "numberOfBytes": "128"
      },
      "t_struct(Game)342_storage": {
        "encoding": "inplace",
        "label": "struct FHEMinesweeper.Game",
        "members": [
          {
            "astId": 330,
            "contract": "contracts/FHEMinesweeper.sol:FHEMinesweeper",
            "label": "moves",
            "offset": 0,
            "slot": "0",
            "type": "t_uint256"
          },
          {
            "astId": 333,
            "contract": "contracts/FHEMinesweeper.sol:FHEMinesweeper",
            "label": "board",
            "offset": 0,
            "slot": "1",
            "type": "t_userDefinedValueType(euint256)5754"
          },
          {
            "astId": 335,
            "contract": "contracts/FHEMinesweeper.sol:FHEMinesweeper",
            "label": "level",
            "offset": 0,
            "slot": "2",
            "type": "t_uint8"
          },
          {
            "astId": 337,
            "contract": "contracts/FHEMinesweeper.sol:FHEMinesweeper",
            "label": "exploded",
            "offset": 1,
            "slot": "2",
            "type": "t_uint8"
          },
          {
            "astId": 339,
            "contract": "contracts/FHEMinesweeper.sol:FHEMinesweeper",
            "label": "victory",
            "offset": 2,
            "slot": "2",
            "type": "t_uint8"
          },
          {
            "astId": 341,
            "contract": "contracts/FHEMinesweeper.sol:FHEMinesweeper",
            "label": "firstCellIndex",
            "offset": 3,
            "slot": "2",
            "type": "t_uint8"
          }
        ],
        "numberOfBytes": "96"
      },
      "t_uint256": {
        "encoding": "inplace",
        "label": "uint256",
        "numberOfBytes": "32"
      },
      "t_uint8": {
        "encoding": "inplace",
        "label": "uint8",
        "numberOfBytes": "1"
      },
      "t_userDefinedValueType(eaddress)5756": {
        "encoding": "inplace",
        "label": "eaddress",
        "numberOfBytes": "32"
      },
      "t_userDefinedValueType(ebool)5740": {
        "encoding": "inplace",
        "label": "ebool",
        "numberOfBytes": "32"
      },
      "t_userDefinedValueType(euint16)5746": {
        "encoding": "inplace",
        "label": "euint16",
        "numberOfBytes": "32"
      },
      "t_userDefinedValueType(euint256)5754": {
        "encoding": "inplace",
        "label": "euint256",
        "numberOfBytes": "32"
      },
      "t_userDefinedValueType(euint32)5748": {
        "encoding": "inplace",
        "label": "euint32",
        "numberOfBytes": "32"
      },
      "t_userDefinedValueType(euint4)5742": {
        "encoding": "inplace",
        "label": "euint4",
        "numberOfBytes": "32"
      },
      "t_userDefinedValueType(euint64)5750": {
        "encoding": "inplace",
        "label": "euint64",
        "numberOfBytes": "32"
      },
      "t_userDefinedValueType(euint8)5744": {
        "encoding": "inplace",
        "label": "euint8",
        "numberOfBytes": "32"
      }
    }
  }
}