{
  "address": "0xC24e49E5A512f8C923B0677C8e75D0730794f75f",
  "abi": [
    {
      "inputs": [
        {
          "internalType": "address",
          "name": "initialOwner_",
          "type": "address"
        }
      ],
      "stateMutability": "nonpayable",
      "type": "constructor"
    },
    {
      "inputs": [
        {
          "internalType": "address",
          "name": "owner",
          "type": "address"
        }
      ],
      "name": "OwnableInvalidOwner",
      "type": "error"
    },
    {
      "inputs": [
        {
          "internalType": "address",
          "name": "account",
          "type": "address"
        }
      ],
      "name": "OwnableUnauthorizedAccount",
      "type": "error"
    },
    {
      "anonymous": false,
      "inputs": [
        {
          "indexed": false,
          "internalType": "address",
          "name": "player",
          "type": "address"
        },
        {
          "indexed": false,
          "internalType": "uint8",
          "name": "cellIndex",
          "type": "uint8"
        },
        {
          "indexed": false,
          "internalType": "uint8",
          "name": "cellValue",
          "type": "uint8"
        },
        {
          "indexed": false,
          "internalType": "bool",
          "name": "victory",
          "type": "bool"
        }
      ],
      "name": "CellRevealed",
      "type": "event"
    },
    {
      "anonymous": false,
      "inputs": [
        {
          "indexed": true,
          "internalType": "address",
          "name": "previousOwner",
          "type": "address"
        },
        {
          "indexed": true,
          "internalType": "address",
          "name": "newOwner",
          "type": "address"
        }
      ],
      "name": "OwnershipTransferStarted",
      "type": "event"
    },
    {
      "anonymous": false,
      "inputs": [
        {
          "indexed": true,
          "internalType": "address",
          "name": "previousOwner",
          "type": "address"
        },
        {
          "indexed": true,
          "internalType": "address",
          "name": "newOwner",
          "type": "address"
        }
      ],
      "name": "OwnershipTransferred",
      "type": "event"
    },
    {
      "inputs": [],
      "name": "acceptOwnership",
      "outputs": [],
      "stateMutability": "nonpayable",
      "type": "function"
    },
    {
      "inputs": [
        {
          "internalType": "address",
          "name": "player",
          "type": "address"
        }
      ],
      "name": "boardOf",
      "outputs": [
        {
          "internalType": "euint256",
          "name": "",
          "type": "uint256"
        }
      ],
      "stateMutability": "view",
      "type": "function"
    },
    {
      "inputs": [
        {
          "internalType": "uint256",
          "name": "requestID",
          "type": "uint256"
        },
        {
          "internalType": "uint8",
          "name": "clearClue",
          "type": "uint8"
        },
        {
          "internalType": "bool",
          "name": "clearVictory",
          "type": "bool"
        }
      ],
      "name": "callbackDecryptCell",
      "outputs": [],
      "stateMutability": "nonpayable",
      "type": "function"
    },
    {
      "inputs": [],
      "name": "deterministic",
      "outputs": [
        {
          "internalType": "bool",
          "name": "",
          "type": "bool"
        }
      ],
      "stateMutability": "view",
      "type": "function"
    },
    {
      "inputs": [],
      "name": "gameCount",
      "outputs": [
        {
          "internalType": "uint256",
          "name": "",
          "type": "uint256"
        }
      ],
      "stateMutability": "view",
      "type": "function"
    },
    {
      "inputs": [],
      "name": "getClearCacheRows256",
      "outputs": [
        {
          "internalType": "uint256",
          "name": "cacheRow0",
          "type": "uint256"
        },
        {
          "internalType": "uint256",
          "name": "cacheRow1",
          "type": "uint256"
        }
      ],
      "stateMutability": "view",
      "type": "function"
    },
    {
      "inputs": [
        {
          "internalType": "uint8",
          "name": "cellIndex",
          "type": "uint8"
        }
      ],
      "name": "getClearCell",
      "outputs": [
        {
          "internalType": "uint8",
          "name": "",
          "type": "uint8"
        }
      ],
      "stateMutability": "view",
      "type": "function"
    },
    {
      "inputs": [
        {
          "internalType": "address",
          "name": "player",
          "type": "address"
        },
        {
          "internalType": "uint8",
          "name": "cellIndex",
          "type": "uint8"
        }
      ],
      "name": "getDebugClearCluesPlusOne",
      "outputs": [
        {
          "internalType": "uint8",
          "name": "",
          "type": "uint8"
        }
      ],
      "stateMutability": "view",
      "type": "function"
    },
    {
      "inputs": [],
      "name": "getEncryptedCacheRows256",
      "outputs": [
        {
          "internalType": "euint256",
          "name": "cacheRow0",
          "type": "uint256"
        },
        {
          "internalType": "euint256",
          "name": "cacheRow1",
          "type": "uint256"
        }
      ],
      "stateMutability": "view",
      "type": "function"
    },
    {
      "inputs": [],
      "name": "hasGameInProgress",
      "outputs": [
        {
          "internalType": "bool",
          "name": "",
          "type": "bool"
        }
      ],
      "stateMutability": "view",
      "type": "function"
    },
    {
      "inputs": [
        {
          "internalType": "address",
          "name": "player",
          "type": "address"
        },
        {
          "internalType": "uint8",
          "name": "cellIndex",
          "type": "uint8"
        }
      ],
      "name": "isClearCellAvailable",
      "outputs": [
        {
          "internalType": "bool",
          "name": "",
          "type": "bool"
        }
      ],
      "stateMutability": "view",
      "type": "function"
    },
    {
      "inputs": [],
      "name": "isItAVictory",
      "outputs": [
        {
          "internalType": "bool",
          "name": "",
          "type": "bool"
        }
      ],
      "stateMutability": "view",
      "type": "function"
    },
    {
      "inputs": [],
      "name": "isItGameOver",
      "outputs": [
        {
          "internalType": "bool",
          "name": "",
          "type": "bool"
        }
      ],
      "stateMutability": "view",
      "type": "function"
    },
    {
      "inputs": [],
      "name": "moves",
      "outputs": [
        {
          "internalType": "uint256",
          "name": "",
          "type": "uint256"
        }
      ],
      "stateMutability": "view",
      "type": "function"
    },
    {
      "inputs": [
        {
          "internalType": "uint8",
          "name": "level",
          "type": "uint8"
        }
      ],
      "name": "newGame",
      "outputs": [],
      "stateMutability": "nonpayable",
      "type": "function"
    },
    {
      "inputs": [],
      "name": "owner",
      "outputs": [
        {
          "internalType": "address",
          "name": "",
          "type": "address"
        }
      ],
      "stateMutability": "view",
      "type": "function"
    },
    {
      "inputs": [],
      "name": "pendingOwner",
      "outputs": [
        {
          "internalType": "address",
          "name": "",
          "type": "address"
        }
      ],
      "stateMutability": "view",
      "type": "function"
    },
    {
      "inputs": [],
      "name": "renounceOwnership",
      "outputs": [],
      "stateMutability": "nonpayable",
      "type": "function"
    },
    {
      "inputs": [
        {
          "internalType": "uint8",
          "name": "cellIndex",
          "type": "uint8"
        }
      ],
      "name": "revealCell",
      "outputs": [],
      "stateMutability": "nonpayable",
      "type": "function"
    },
    {
      "inputs": [],
      "name": "rowCount",
      "outputs": [
        {
          "internalType": "uint8",
          "name": "",
          "type": "uint8"
        }
      ],
      "stateMutability": "pure",
      "type": "function"
    },
    {
      "inputs": [
        {
          "internalType": "bool",
          "name": "enable",
          "type": "bool"
        }
      ],
      "name": "setDeterministicMode",
      "outputs": [],
      "stateMutability": "nonpayable",
      "type": "function"
    },
    {
      "inputs": [],
      "name": "size",
      "outputs": [
        {
          "internalType": "uint8",
          "name": "rows",
          "type": "uint8"
        },
        {
          "internalType": "uint8",
          "name": "cols",
          "type": "uint8"
        }
      ],
      "stateMutability": "pure",
      "type": "function"
    },
    {
      "inputs": [
        {
          "internalType": "address",
          "name": "newOwner",
          "type": "address"
        }
      ],
      "name": "transferOwnership",
      "outputs": [],
      "stateMutability": "nonpayable",
      "type": "function"
    }
  ],
  "transactionHash": "0xf753ae5c511b51de56f8c4a711676d9418f49aab797d9caf2a13d7823598ae31",
  "args": [
    "0x37AC010c1c566696326813b840319B58Bb5840E4"
  ],
  "numDeployments": 3,
  "solcInputHash": "aebb2ec04a5c8e50107e2d7a3bc94fc2",
  "bytecode": "0x60e060405234801562000010575f80fd5b5060405162002d5238038062002d52833981016040819052620000339162000450565b806200019e620000d4604080516080810182525f808252602082018190529181018290526060810191909152506040805160808101825273fee8407e2f5e3ee68ad77cae98c434e637f516e5815273687408ab54661ba0b4aef3a44156c616c6955e07602082015273fb03be574d14c256d56f09a198b586bdfc0a9de291810191909152739d6891a6240d6130c54ae243d8005063d05fe14b606082015290565b80515f8051602062002d3283398151915280546001600160a01b03199081166001600160a01b039384161790915560208301517fed8d60e34876f751cc8b014c560745351147d9de11b9347c854e881b128ea6018054831691841691909117905560408301517fed8d60e34876f751cc8b014c560745351147d9de11b9347c854e881b128ea6028054831691841691909117905560608301517fed8d60e34876f751cc8b014c560745351147d9de11b9347c854e881b128ea6038054909216921691909117905550565b7f93ab6e17f2c461cce6ea5d4ec117e51dda77a64affc2b2c05f8cd440def0e70080546001600160a01b0319167333347831500f1e73f0cccbb95c9f86b94d7b11231790556001600160a01b0381166200021157604051631e4fbdf760e01b81525f600482015260240160405180910390fd5b6200021c8162000278565b50620002285f62000293565b60808190526200023890620002a7565b620002435f620002b3565b60a08190526200025390620002a7565b6200025e5f620002c1565b60c08190526200026e90620002a7565b5062000497565b50565b600b80546001600160a01b03191690556200027581620002cf565b5f620002a182600862000320565b92915050565b620002758130620003d7565b5f620002a182600262000320565b5f620002a182600162000320565b600a80546001600160a01b038381166001600160a01b0319831681179093556040519116919082907f8be0079c531659141344cd1fd0a4f28419497f9722a3daafe3b4186f6b6457e0905f90a35050565b5f805f8051602062002d328339815191526001810154604051631ce2e8d760e31b8152600481018790527fff0000000000000000000000000000000000000000000000000000000000000060f887901b1660248201529192506001600160a01b03169063e71746b8906044016020604051808303815f875af1158015620003a9573d5f803e3d5ffd5b505050506040513d601f19601f82011682018060405250810190620003cf91906200047f565b949350505050565b5f5f8051602062002d328339815191528054604051631974142760e21b8152600481018690526001600160a01b0385811660248301529293509116906365d0509c906044015f604051808303815f87803b15801562000434575f80fd5b505af115801562000447573d5f803e3d5ffd5b50505050505050565b5f6020828403121562000461575f80fd5b81516001600160a01b038116811462000478575f80fd5b9392505050565b5f6020828403121562000490575f80fd5b5051919050565b60805160a05160c05161286c620004c65f395f81816116bc01526116fd01525f6115ea01525f505061286c5ff3fe608060405234801561000f575f80fd5b5060043610610183575f3560e01c8063715018a6116100dd5780639f17716611610088578063bbf344ce11610063578063bbf344ce1461034a578063e30c39781461035d578063f2fde38b1461036e575f80fd5b80639f177166146102d85780639ffef76e14610310578063b5499c9814610337575f80fd5b80638da5cb5b116100b85780638da5cb5b1461028c578063949d225d146102b15780639f0a3bc7146102c5575f80fd5b8063715018a61461026957806379ba5097146102715780637e5f8dca14610279575f80fd5b806348e992a31161013d57806350e546c91161011857806350e546c91461022357806365a0cbbe1461024e57806368d8e8c914610261575f80fd5b806348e992a3146101fb5780634babb2a3146102065780634d1975b41461021b575f80fd5b80633c548c8e1161016d5780633c548c8e146101c75780633ec14f41146101ec57806346d4294d146101f4575f80fd5b8062be82751461018757806311d87aa0146101a2575b5f80fd5b61018f610381565b6040519081526020015b60405180910390f35b335f908152600e602052604090206001015415155b6040519015158152602001610199565b6101da6101d53660046125a2565b61041b565b60405160ff9091168152602001610199565b6101b76105ce565b600b6101da565b600d5460ff166101b7565b6102196102143660046125ca565b61066c565b005b600c5461018f565b61018f6102313660046125f9565b6001600160a01b03165f908152600e602052604090206001015490565b61021961025c366004612612565b610688565b6101b76109c9565b610219610a67565b610219610a7a565b6102196102873660046125a2565b610abb565b600a546001600160a01b03165b6040516001600160a01b039091168152602001610199565b60408051600b808252602082015201610199565b6101da6102d336600461264b565b610bd8565b335f908152600f6020908152604080832083805290915280822054600183529120545b60408051928352602083019190915201610199565b335f90815260106020908152604080832083805290915280822054600183529120546102fb565b6101b761034536600461264b565b610c07565b6102196103583660046125a2565b610c20565b600b546001600160a01b0316610299565b61021961037c3660046125f9565b610d43565b5f610410336040805160a0810182525f80825260208201819052918101829052606081018290526080810191909152506001600160a01b03165f908152600e6020908152604091829020825160a081018452815481526001820154928101929092526002015460ff80821693830193909352610100810483166060830152620100009004909116608082015290565b51919050565b905090565b335f908152600e602052604081206001015461047e5760405162461bcd60e51b815260206004820152601660248201527f53656e646572206973206e6f74206120706c617965720000000000000000000060448201526064015b60405180910390fd5b335f908152600e602052604090206002015460101961010090910460ff16016104d55760405162461bcd60e51b815260206004820152600960248201526823b0b6b29037bb32b960b91b6044820152606401610475565b5f6104e03384610dc1565b90505f8160ff16116105345760405162461bcd60e51b815260206004820152600f60248201527f4e6f206361636865642076616c756500000000000000000000000000000000006044820152606401610475565b61054060096001612690565b60ff168160ff16106105ba5760405162461bcd60e51b815260206004820152603660248201527f50616e69633a20636163686564436c7565506c75734f6e65203e3d2043454c4c60448201527f5f49535f424f4d425f5448524553484f4c44202b2031000000000000000000006064820152608401610475565b6105c56001826126a9565b9150505b919050565b5f601161065f336040805160a0810182525f80825260208201819052918101829052606081018290526080810191909152506001600160a01b03165f908152600e6020908152604091829020825160a081018452815481526001820154928101929092526002015460ff80821693830193909352610100810483166060830152620100009004909116608082015290565b6080015160ff1614905090565b610674610eba565b600d805460ff191682151517905550565b50565b7f93ab6e17f2c461cce6ea5d4ec117e51dda77a64affc2b2c05f8cd440def0e700546001600160a01b031633146106bd575f80fd5b5f6011816106cc8660016126c2565b815260208101919091526040015f2060038101549091506001600160a01b0316806107395760405162461bcd60e51b815260206004820152600f60248201527f526571756573742064656c6574656400000000000000000000000000000000006044820152606401610475565b6107448560016126c2565b6001600160a01b0382165f90815260126020526040902054146107a95760405162461bcd60e51b815260206004820152600e60248201527f496e7465726e616c206572726f720000000000000000000000000000000000006044820152606401610475565b6003820154600160a81b900460ff16156108055760405162461bcd60e51b815260206004820152601160248201527f416c726561647920636f6d706c657465640000000000000000000000000000006044820152606401610475565b60038201805460ff60a81b1916600160a81b17908190556001600160a01b0382165f908152601260205260408120819055600160a01b90910460ff16906011906108508860016126c2565b815260208082019290925260409081015f9081208181556001810182905560028101829055600301805475ffffffffffffffffffffffffffffffffffffffffffff191690556001600160a01b0385168152600e9092529020600960ff8716106108c95760028101805461ff001916611100179055600995505b6108de836108d86001856126a9565b88610ee7565b846108ea5760ff6108ed565b60115b60028201805460ff92909216620100000262ff000019909216919091179055610917866001612690565b6001600160a01b0384165f9081526013602052604081209061093a6001866126a9565b60ff908116825260208201929092526040015f20805460ff1916929091169190911790557f22e7a4ef212821e33e3d7b990c954123a3acccce6206c78ccfef4b84ab7a6ee08361098b6001856126a9565b604080516001600160a01b03909316835260ff918216602084015290891690820152861515606082015260800160405180910390a150505050505050565b5f6011610a5a336040805160a0810182525f80825260208201819052918101829052606081018290526080810191909152506001600160a01b03165f908152600e6020908152604091829020825160a081018452815481526001820154928101929092526002015460ff80821693830193909352610100810483166060830152620100009004909116608082015290565b6060015160ff1614905090565b610a6f610eba565b610a785f611047565b565b600b5433906001600160a01b03168114610ab25760405163118cdaa760e01b81526001600160a01b0382166004820152602401610475565b61068581611047565b335f908152600e6020526040902060010154610b195760405162461bcd60e51b815260206004820152601660248201527f53656e646572206973206e6f74206120706c61796572000000000000000000006044820152606401610475565b335f908152600e602052604090206002015460101961010090910460ff1601610b705760405162461bcd60e51b815260206004820152600960248201526823b0b6b29037bb32b960b91b6044820152606401610475565b610b7b600b806126d5565b60ff168160ff1610610bcf5760405162461bcd60e51b815260206004820152601260248201527f496e76616c69642063656c6c20696e64657800000000000000000000000000006044820152606401610475565b6106858161106d565b6001600160a01b0382165f90815260136020908152604080832060ff8086168552925290912054165b92915050565b5f80610c138484610dc1565b60ff161515949350505050565b60038160ff1610610c735760405162461bcd60e51b815260206004820152600d60248201527f496e76616c6964206c6576656c000000000000000000000000000000000000006044820152606401610475565b610c7c33611261565b600d545f9060ff16610c9657610c918261136b565b610c9f565b610c9f8261141b565b6040805160a0810182525f808252602080830185815260ff8089168587019081526060860182815260808701838152338752600e909552968520955186559151600180870191909155915160029095018054965193518216620100000262ff0000199483166101000261ffff199098169690921695909517959095179190911693909317909155600c80549394509192610d3a9084906126c2565b90915550505050565b610d4b610eba565b600b80546001600160a01b03831673ffffffffffffffffffffffffffffffffffffffff199091168117909155610d89600a546001600160a01b031690565b6001600160a01b03167f38d16b8cac22d99fc7c124b9cd0de2d3fa1faef420bfe791d8c362d765e2270060405160405180910390a350565b5f610dcd600b806126d5565b60ff168260ff1610610e155760405162461bcd60e51b81526020600482015260116024820152704b6579206f7574206f6620626f756e647360781b6044820152606401610475565b5f610e2160408461270c565b90505f610e2f60408561272d565b905060018260ff161115610e745760405162461bcd60e51b815260206004820152600c60248201526b2830b734b19d1032b93937b960a11b6044820152606401610475565b600f610e818260046126d5565b6001600160a01b03969096165f90815260106020908152604080832060ff9687168452909152902054959092169490941c169392505050565b600a546001600160a01b03163314610a785760405163118cdaa760e01b8152336004820152602401610475565b610ef2600b806126d5565b60ff168260ff1610610f3a5760405162461bcd60e51b81526020600482015260116024820152704b6579206f7574206f6620626f756e647360781b6044820152606401610475565b600f8160ff1610610f8d5760405162461bcd60e51b815260206004820152600e60248201527f56616c7565206f766572666c6f770000000000000000000000000000000000006044820152606401610475565b5f610f9960408461270c565b90505f610fa760408561272d565b905060018260ff161115610fec5760405162461bcd60e51b815260206004820152600c60248201526b2830b734b19d1032b93937b960a11b6044820152606401610475565b5f610ff88260046126d5565b60ff16600f611008866001612690565b6001600160a01b03989098165f90815260106020908152604080832060ff98891684529091529020805491909816909416901b90921790945550505050565b600b805473ffffffffffffffffffffffffffffffffffffffff191690556106858161156b565b335f818152600e60205260408120916110869084610dc1565b905060ff8116156110d95760405162461bcd60e51b815260206004820152601060248201527f416c72656164792072657665616c6564000000000000000000000000000000006044820152606401610475565b335f90815260126020526040812054819080156111cd575f818152601160205260409020600281015442116111505760405162461bcd60e51b815260206004820152601160248201527f416c7265616479207265717565737465640000000000000000000000000000006044820152606401610475565b600381015461116b90600190600160a01b900460ff166126a9565b8154600192830154335f9081526012602090815260408083208390558783526011909152812081815594850181905560028501556003909301805475ffffffffffffffffffffffffffffffffffffffffffff191690559097509350915061124d565b6111d88660026126d5565b60ff166001901b855f015417855f01819055506111fc3386600101548860016115c9565b600187015487549195506112399250611214916117e0565b7e01555555555555555555555555555555555555555555555555555555555555611805565b915061124483611823565b61124d82611823565b6112593387858561182d565b505050505050565b6001600160a01b0381165f908152600e602052604090206001015415610685576001600160a01b0381165f818152600e6020908152604080832083815560018082018590556002909101805462ffffff19169055600f83528184208480528352818420849055808452818420849055848452601083528184208480528352818420849055835280832083905592825260129052205415611352576001600160a01b0381165f90815260126020908152604080832054835260119091528120818155600181018290556002810191909155600301805475ffffffffffffffffffffffffffffffffffffffffffff191690555b6001600160a01b03165f90815260126020526040812055565b5f611374611a53565b90505f61137f611a53565b90508260ff166001036113a05761139d81611398611a53565b611a5e565b90505b8260ff166002036113ba576113b781611398611a53565b90505b6113c48282611a8c565b91506113ef827e01555555555555555555555555555555555555555555555555555555555555611aba565b91506113fa82611823565b61141582611410600a546001600160a01b031690565b611ad8565b50919050565b600c5460408051602080820184905260ff85168284018190525f60608085018290528551808603909101815260808501865280519084012060a085019690965260c08401829052600160e08086018290528651808703909101815261010090950190955283519390920192909220909392909190036114cf57600c5460408051602081019290925260ff8616908201526002606082015260800160408051601f198184030181529190528051602090910120175b8360ff1660020361151557600c5460408051602081019290925260ff8616908201526003606082015260800160408051601f198184030181529190528051602090910120175b9081167e01555555555555555555555555555555555555555555555555555555555555169061154382611ae6565b925061154e83611823565b61156483611410600a546001600160a01b031690565b5050919050565b600a80546001600160a01b0383811673ffffffffffffffffffffffffffffffffffffffff19831681179093556040519116919082907f8be0079c531659141344cd1fd0a4f28419497f9722a3daafe3b4186f6b6457e0905f90a35050565b5f805f806115d686611af2565b915091505f6115e6888484611b72565b90507f0000000000000000000000000000000000000000000000000000000000000000808060ff86161561162c576116298b6116236001896126a9565b87611b72565b91505b6116386001600b6126a9565b60ff168660ff161015611657576116548b611623886001612690565b90505b61166a816116658685611bcc565b611bcc565b92505f61168061167985611bfa565b6003611c06565b90505f611699611679611694876002611c27565b611bfa565b90505f6116ad611679611694886004611c27565b90508760ff165f036116e257507f0000000000000000000000000000000000000000000000000000000000000000919061171d565b6116ee6001600b6126a9565b60ff168860ff160361171d57507f00000000000000000000000000000000000000000000000000000000000000005b6117308161172b8486611c48565b611c48565b99505050505050508160ff165f036117545761174d816003611c68565b945061176c565b611769611762826002611c27565b6003611c68565b94505b5f61177682611bfa565b90505f60ff8416156117925761178d826002611c77565b61179d565b61179d826003611c06565b90506117a98682611c86565b95506117bf866117ba836003611ca6565b611c86565b955087156117d2576117d28b8a88611cc7565b505050505094509492505050565b5f826117f2576117ef5f611ae6565b92505b6117fe83836001611e1f565b9392505050565b5f82611817576118145f611ae6565b92505b6117fe83836001611edc565b6106858130611f53565b6001600160a01b0384165f90815260126020526040902054156118b85760405162461bcd60e51b815260206004820152603560248201527f50616e69633a205f706c617965725265717565737449445b706c617965725d2e60448201527f63656c6c496e646578506c75734f6e6520213d203000000000000000000000006064820152608401610475565b6040805160028082526060820183525f9260208301908036833701905050905082815f815181106118eb576118eb61274e565b6020908102919091010152818160018151811061190a5761190a61274e565b60209081029190910101525f611934826332d065df60e11b8361192e4260646126c2565b5f611fc9565b90506119418160016126c2565b6001600160a01b0387165f9081526012602090815260409182902092909255805160c081018252868152918201859052810161197e4260646126c2565b81526001600160a01b038816602082015260400161199d876001612690565b60ff1681525f60209091018190526011906119b98460016126c2565b815260208082019290925260409081015f20835181559183015160018301558201516002820155606082015160039091018054608084015160a0909401511515600160a81b0260ff60a81b1960ff909516600160a01b027fffffffffffffffffffffff0000000000000000000000000000000000000000009092166001600160a01b03909416939093171792909216179055505050505050565b5f61041660086120e0565b5f82611a7057611a6d5f611ae6565b92505b81611a8157611a7e5f611ae6565b91505b6117fe83835f61216c565b5f82611a9e57611a9b5f611ae6565b92505b81611aaf57611aac5f611ae6565b91505b6117fe83835f6121e3565b5f82611acc57611ac95f611ae6565b92505b6117fe838360016121e3565b611ae28282611f53565b5050565b5f610c0182600861225a565b5f80611aff600b806126d5565b60ff168360ff1610611b535760405162461bcd60e51b815260206004820152601360248201527f43656c6c20696e646578206f776572666c6f77000000000000000000000000006044820152606401610475565b611b5e600b8461270c565b9150611b6b600b8461272d565b9050915091565b5f8160ff165f03611ba957611ba2611b9b611b9686611b91875f6122f8565b61237d565b61238c565b600f611c68565b90506117fe565b611bc4611b9685611b9186611bbf6001886126a9565b6122f8565b949350505050565b5f82611bde57611bdb5f612398565b92505b81611bef57611bec5f612398565b91505b6117fe83835f6123a4565b5f610c0182600161241b565b5f82611c1857611c155f61247d565b92505b6117fe838360ff1660016121e3565b5f82611c3957611c365f612398565b92505b6117fe838360ff166001612489565b5f82611c5a57611c575f61247d565b92505b81611bef57611bec5f61247d565b5f82611c1857611c155f612398565b5f82611c3957611c365f61247d565b5f82611c9857611c955f61247d565b92505b81611a8157611a7e5f61247d565b5f82611cb857611cb55f61247d565b92505b6117fe838360ff166001612500565b611cd2600b806126d5565b60ff168260ff1610611d1a5760405162461bcd60e51b81526020600482015260116024820152704b6579206f7574206f6620626f756e647360781b6044820152606401610475565b5f611d2660408461270c565b90505f611d3460408561272d565b905060018260ff161115611d795760405162461bcd60e51b815260206004820152600c60248201526b2830b734b19d1032b93937b960a11b6044820152606401610475565b5f611d96611d8685612577565b611d918460046126d5565b612583565b6001600160a01b0387165f908152600f6020908152604080832060ff881684529091528120549192508115611dd457611dcf8284611a5e565b611dd6565b825b9050611de181611823565b611deb8189611ad8565b6001600160a01b039097165f908152600f6020908152604080832060ff909716835295905293909320959095555050505050565b5f808215611e325750600160f81b611e35565b505f5b5f8051602061284083398151915254604051632c7d67b760e01b815260048101879052602481018690526001600160f81b0319831660448201525f80516020612820833981519152916001600160a01b031690632c7d67b7906064015b6020604051808303815f875af1158015611eae573d5f803e3d5ffd5b505050506040513d601f19601f82011682018060405250810190611ed29190612762565b9695505050505050565b5f808215611eef5750600160f81b611ef2565b505f5b5f8051602061284083398151915254604051630d7c62eb60e31b815260048101879052602481018690526001600160f81b0319831660448201525f80516020612820833981519152916001600160a01b031690636be3175890606401611e92565b5f5f805160206128208339815191528054604051631974142760e21b8152600481018690526001600160a01b0385811660248301529293509116906365d0509c906044015f604051808303815f87803b158015611fae575f80fd5b505af1158015611fc0573d5f803e3d5ffd5b50505050505050565b5f80516020612820833981519152805460405163155f840160e21b81525f92916001600160a01b03169063557e100490612007908a906004016127b3565b5f604051808303815f87803b15801561201e575f80fd5b505af1158015612030573d5f803e3d5ffd5b505050505f61205c7f93ab6e17f2c461cce6ea5d4ec117e51dda77a64affc2b2c05f8cd440def0e70090565b8054604051634c0d927760e01b81529192506001600160a01b031690634c0d927790612094908b908b908b908b908b906004016127c5565b6020604051808303815f875af11580156120b0573d5f803e3d5ffd5b505050506040513d601f19601f820116820180604052508101906120d49190612762565b98975050505050505050565b5f805f80516020612820833981519152600181015460405163480694a760e11b81526001600160f81b031960f887901b1660048201529192506001600160a01b03169063900d294e906024016020604051808303815f875af1158015612148573d5f803e3d5ffd5b505050506040513d601f19601f820116820180604052508101906105c59190612762565b5f80821561217f5750600160f81b612182565b505f5b5f8051602061284083398151915254604051633b1015f760e21b815260048101879052602481018690526001600160f81b0319831660448201525f80516020612820833981519152916001600160a01b03169063ec4057dc90606401611e92565b5f8082156121f65750600160f81b6121f9565b505f5b5f8051602061284083398151915254604051630ccd46b160e31b815260048101879052602481018690526001600160f81b0319831660448201525f80516020612820833981519152916001600160a01b03169063666a358890606401611e92565b5f8051602061284083398151915254604051631ce2e8d760e31b81526004810184905260f883901b6001600160f81b03191660248201525f915f80516020612820833981519152916001600160a01b039091169063e71746b8906044015b6020604051808303815f875af11580156122d4573d5f803e3d5ffd5b505050506040513d601f19601f82011682018060405250810190611bc49190612762565b5f600b60ff841610801561230f5750600b60ff8316105b61235b5760405162461bcd60e51b815260206004820152601060248201527f526f772f436f6c206f776572666c6f77000000000000000000000000000000006044820152606401610475565b600282612369600b866126d5565b6123739190612690565b6117fe91906126d5565b5f82611c3957611c365f611ae6565b5f610c0182600261241b565b5f610c0182600261225a565b5f8082156123b75750600160f81b6123ba565b505f5b5f805160206128408339815191525460405163f953e42760e01b815260048101879052602481018690526001600160f81b0319831660448201525f80516020612820833981519152916001600160a01b03169063f953e42790606401611e92565b5f805160206128408339815191525460405163025f346960e51b81526004810184905260f883901b6001600160f81b03191660248201525f915f80516020612820833981519152916001600160a01b0390911690634be68d20906044016122b8565b5f610c0182600161225a565b5f80821561249c5750600160f81b61249f565b505f5b5f8051602061284083398151915254604051633bb860cf60e21b815260048101879052602481018690526001600160f81b0319831660448201525f80516020612820833981519152916001600160a01b03169063eee1833c90606401611e92565b5f8082156125135750600160f81b612516565b505f5b5f80516020612840833981519152546040516389a4314b60e01b815260048101879052602481018690526001600160f81b0319831660448201525f80516020612820833981519152916001600160a01b0316906389a4314b90606401611e92565b5f610c0182600861241b565b5f82611cb857611cb55f611ae6565b803560ff811681146105c9575f80fd5b5f602082840312156125b2575f80fd5b6117fe82612592565b803580151581146105c9575f80fd5b5f602082840312156125da575f80fd5b6117fe826125bb565b80356001600160a01b03811681146105c9575f80fd5b5f60208284031215612609575f80fd5b6117fe826125e3565b5f805f60608486031215612624575f80fd5b8335925061263460208501612592565b9150612642604085016125bb565b90509250925092565b5f806040838503121561265c575f80fd5b612665836125e3565b915061267360208401612592565b90509250929050565b634e487b7160e01b5f52601160045260245ffd5b60ff8181168382160190811115610c0157610c0161267c565b60ff8281168282160390811115610c0157610c0161267c565b80820180821115610c0157610c0161267c565b60ff81811683821602908116908181146126f1576126f161267c565b5092915050565b634e487b7160e01b5f52601260045260245ffd5b5f60ff83168061271e5761271e6126f8565b8060ff84160491505092915050565b5f60ff83168061273f5761273f6126f8565b8060ff84160691505092915050565b634e487b7160e01b5f52603260045260245ffd5b5f60208284031215612772575f80fd5b5051919050565b5f815180845260208085019450602084015f5b838110156127a85781518752958201959082019060010161278c565b509495945050505050565b602081525f6117fe6020830184612779565b60a081525f6127d760a0830188612779565b7fffffffff000000000000000000000000000000000000000000000000000000009690961660208301525060408101939093526060830191909152151560809091015291905056feed8d60e34876f751cc8b014c560745351147d9de11b9347c854e881b128ea600ed8d60e34876f751cc8b014c560745351147d9de11b9347c854e881b128ea601a164736f6c6343000818000aed8d60e34876f751cc8b014c560745351147d9de11b9347c854e881b128ea600",
  "devdoc": {
    "errors": {
      "OwnableInvalidOwner(address)": [
        {
          "details": "The owner is not a valid owner account. (eg. `address(0)`)"
        }
      ],
      "OwnableUnauthorizedAccount(address)": [
        {
          "details": "The caller account is not authorized to perform an operation."
        }
      ]
    },
    "kind": "dev",
    "methods": {
      "acceptOwnership()": {
        "details": "The new owner accepts the ownership transfer."
      },
      "owner()": {
        "details": "Returns the address of the current owner."
      },
      "pendingOwner()": {
        "details": "Returns the address of the pending owner."
      },
      "renounceOwnership()": {
        "details": "Leaves the contract without owner. It will not be possible to call `onlyOwner` functions. Can only be called by the current owner. NOTE: Renouncing ownership will leave the contract without an owner, thereby disabling any functionality that is only available to the owner."
      },
      "transferOwnership(address)": {
        "details": "Starts the ownership transfer of the contract to a new account. Replaces the pending transfer if there is one. Can only be called by the current owner. Setting `newOwner` to the zero address is allowed; this can be used to cancel an initiated ownership transfer."
      }
    },
    "version": 1
  },
  "userdoc": {
    "kind": "user",
    "methods": {},
    "version": 1
  },
  "storageLayout": {
    "storage": [
      {
        "astId": 2725,
        "contract": "contracts/FHEMinesweeper.sol:FHEMinesweeper",
        "label": "paramsEBool",
        "offset": 0,
        "slot": "0",
        "type": "t_mapping(t_uint256,t_array(t_userDefinedValueType(ebool)5467)dyn_storage)"
      },
      {
        "astId": 2731,
        "contract": "contracts/FHEMinesweeper.sol:FHEMinesweeper",
        "label": "paramsEUint4",
        "offset": 0,
        "slot": "1",
        "type": "t_mapping(t_uint256,t_array(t_userDefinedValueType(euint4)5469)dyn_storage)"
      },
      {
        "astId": 2737,
        "contract": "contracts/FHEMinesweeper.sol:FHEMinesweeper",
        "label": "paramsEUint8",
        "offset": 0,
        "slot": "2",
        "type": "t_mapping(t_uint256,t_array(t_userDefinedValueType(euint8)5471)dyn_storage)"
      },
      {
        "astId": 2743,
        "contract": "contracts/FHEMinesweeper.sol:FHEMinesweeper",
        "label": "paramsEUint16",
        "offset": 0,
        "slot": "3",
        "type": "t_mapping(t_uint256,t_array(t_userDefinedValueType(euint16)5473)dyn_storage)"
      },
      {
        "astId": 2749,
        "contract": "contracts/FHEMinesweeper.sol:FHEMinesweeper",
        "label": "paramsEUint32",
        "offset": 0,
        "slot": "4",
        "type": "t_mapping(t_uint256,t_array(t_userDefinedValueType(euint32)5475)dyn_storage)"
      },
      {
        "astId": 2755,
        "contract": "contracts/FHEMinesweeper.sol:FHEMinesweeper",
        "label": "paramsEUint64",
        "offset": 0,
        "slot": "5",
        "type": "t_mapping(t_uint256,t_array(t_userDefinedValueType(euint64)5477)dyn_storage)"
      },
      {
        "astId": 2761,
        "contract": "contracts/FHEMinesweeper.sol:FHEMinesweeper",
        "label": "paramsEAddress",
        "offset": 0,
        "slot": "6",
        "type": "t_mapping(t_uint256,t_array(t_userDefinedValueType(eaddress)5483)dyn_storage)"
      },
      {
        "astId": 2766,
        "contract": "contracts/FHEMinesweeper.sol:FHEMinesweeper",
        "label": "paramsAddress",
        "offset": 0,
        "slot": "7",
        "type": "t_mapping(t_uint256,t_array(t_address)dyn_storage)"
      },
      {
        "astId": 2771,
        "contract": "contracts/FHEMinesweeper.sol:FHEMinesweeper",
        "label": "paramsUint256",
        "offset": 0,
        "slot": "8",
        "type": "t_mapping(t_uint256,t_array(t_uint256)dyn_storage)"
      },
      {
        "astId": 2776,
        "contract": "contracts/FHEMinesweeper.sol:FHEMinesweeper",
        "label": "requestedHandles",
        "offset": 0,
        "slot": "9",
        "type": "t_mapping(t_uint256,t_array(t_uint256)dyn_storage)"
      },
      {
        "astId": 8,
        "contract": "contracts/FHEMinesweeper.sol:FHEMinesweeper",
        "label": "_owner",
        "offset": 0,
        "slot": "10",
        "type": "t_address"
      },
      {
        "astId": 156,
        "contract": "contracts/FHEMinesweeper.sol:FHEMinesweeper",
        "label": "_pendingOwner",
        "offset": 0,
        "slot": "11",
        "type": "t_address"
      },
      {
        "astId": 330,
        "contract": "contracts/FHEMinesweeper.sol:FHEMinesweeper",
        "label": "_gameCount",
        "offset": 0,
        "slot": "12",
        "type": "t_uint256"
      },
      {
        "astId": 332,
        "contract": "contracts/FHEMinesweeper.sol:FHEMinesweeper",
        "label": "_deterministic",
        "offset": 0,
        "slot": "13",
        "type": "t_bool"
      },
      {
        "astId": 337,
        "contract": "contracts/FHEMinesweeper.sol:FHEMinesweeper",
        "label": "_games",
        "offset": 0,
        "slot": "14",
        "type": "t_mapping(t_address,t_struct(Game)319_storage)"
      },
      {
        "astId": 344,
        "contract": "contracts/FHEMinesweeper.sol:FHEMinesweeper",
        "label": "_encryptedCache256",
        "offset": 0,
        "slot": "15",
        "type": "t_mapping(t_address,t_mapping(t_uint8,t_userDefinedValueType(euint256)5481))"
      },
      {
        "astId": 350,
        "contract": "contracts/FHEMinesweeper.sol:FHEMinesweeper",
        "label": "_clearCache256",
        "offset": 0,
        "slot": "16",
        "type": "t_mapping(t_address,t_mapping(t_uint8,t_uint256))"
      },
      {
        "astId": 355,
        "contract": "contracts/FHEMinesweeper.sol:FHEMinesweeper",
        "label": "_requestIDPlusOneToRequest",
        "offset": 0,
        "slot": "17",
        "type": "t_mapping(t_uint256,t_struct(CellDecryptionRequest)390_storage)"
      },
      {
        "astId": 359,
        "contract": "contracts/FHEMinesweeper.sol:FHEMinesweeper",
        "label": "_playerToRequestIDPlusOne",
        "offset": 0,
        "slot": "18",
        "type": "t_mapping(t_address,t_uint256)"
      },
      {
        "astId": 365,
        "contract": "contracts/FHEMinesweeper.sol:FHEMinesweeper",
        "label": "_debugClearCluesPlusOne",
        "offset": 0,
        "slot": "19",
        "type": "t_mapping(t_address,t_mapping(t_uint8,t_uint8))"
      }
    ],
    "types": {
      "t_address": {
        "encoding": "inplace",
        "label": "address",
        "numberOfBytes": "20"
      },
      "t_array(t_address)dyn_storage": {
        "base": "t_address",
        "encoding": "dynamic_array",
        "label": "address[]",
        "numberOfBytes": "32"
      },
      "t_array(t_uint256)dyn_storage": {
        "base": "t_uint256",
        "encoding": "dynamic_array",
        "label": "uint256[]",
        "numberOfBytes": "32"
      },
      "t_array(t_userDefinedValueType(eaddress)5483)dyn_storage": {
        "base": "t_userDefinedValueType(eaddress)5483",
        "encoding": "dynamic_array",
        "label": "eaddress[]",
        "numberOfBytes": "32"
      },
      "t_array(t_userDefinedValueType(ebool)5467)dyn_storage": {
        "base": "t_userDefinedValueType(ebool)5467",
        "encoding": "dynamic_array",
        "label": "ebool[]",
        "numberOfBytes": "32"
      },
      "t_array(t_userDefinedValueType(euint16)5473)dyn_storage": {
        "base": "t_userDefinedValueType(euint16)5473",
        "encoding": "dynamic_array",
        "label": "euint16[]",
        "numberOfBytes": "32"
      },
      "t_array(t_userDefinedValueType(euint32)5475)dyn_storage": {
        "base": "t_userDefinedValueType(euint32)5475",
        "encoding": "dynamic_array",
        "label": "euint32[]",
        "numberOfBytes": "32"
      },
      "t_array(t_userDefinedValueType(euint4)5469)dyn_storage": {
        "base": "t_userDefinedValueType(euint4)5469",
        "encoding": "dynamic_array",
        "label": "euint4[]",
        "numberOfBytes": "32"
      },
      "t_array(t_userDefinedValueType(euint64)5477)dyn_storage": {
        "base": "t_userDefinedValueType(euint64)5477",
        "encoding": "dynamic_array",
        "label": "euint64[]",
        "numberOfBytes": "32"
      },
      "t_array(t_userDefinedValueType(euint8)5471)dyn_storage": {
        "base": "t_userDefinedValueType(euint8)5471",
        "encoding": "dynamic_array",
        "label": "euint8[]",
        "numberOfBytes": "32"
      },
      "t_bool": {
        "encoding": "inplace",
        "label": "bool",
        "numberOfBytes": "1"
      },
      "t_mapping(t_address,t_mapping(t_uint8,t_uint256))": {
        "encoding": "mapping",
        "key": "t_address",
        "label": "mapping(address => mapping(uint8 => uint256))",
        "numberOfBytes": "32",
        "value": "t_mapping(t_uint8,t_uint256)"
      },
      "t_mapping(t_address,t_mapping(t_uint8,t_uint8))": {
        "encoding": "mapping",
        "key": "t_address",
        "label": "mapping(address => mapping(uint8 => uint8))",
        "numberOfBytes": "32",
        "value": "t_mapping(t_uint8,t_uint8)"
      },
      "t_mapping(t_address,t_mapping(t_uint8,t_userDefinedValueType(euint256)5481))": {
        "encoding": "mapping",
        "key": "t_address",
        "label": "mapping(address => mapping(uint8 => euint256))",
        "numberOfBytes": "32",
        "value": "t_mapping(t_uint8,t_userDefinedValueType(euint256)5481)"
      },
      "t_mapping(t_address,t_struct(Game)319_storage)": {
        "encoding": "mapping",
        "key": "t_address",
        "label": "mapping(address => struct FHEMinesweeper.Game)",
        "numberOfBytes": "32",
        "value": "t_struct(Game)319_storage"
      },
      "t_mapping(t_address,t_uint256)": {
        "encoding": "mapping",
        "key": "t_address",
        "label": "mapping(address => uint256)",
        "numberOfBytes": "32",
        "value": "t_uint256"
      },
      "t_mapping(t_uint256,t_array(t_address)dyn_storage)": {
        "encoding": "mapping",
        "key": "t_uint256",
        "label": "mapping(uint256 => address[])",
        "numberOfBytes": "32",
        "value": "t_array(t_address)dyn_storage"
      },
      "t_mapping(t_uint256,t_array(t_uint256)dyn_storage)": {
        "encoding": "mapping",
        "key": "t_uint256",
        "label": "mapping(uint256 => uint256[])",
        "numberOfBytes": "32",
        "value": "t_array(t_uint256)dyn_storage"
      },
      "t_mapping(t_uint256,t_array(t_userDefinedValueType(eaddress)5483)dyn_storage)": {
        "encoding": "mapping",
        "key": "t_uint256",
        "label": "mapping(uint256 => eaddress[])",
        "numberOfBytes": "32",
        "value": "t_array(t_userDefinedValueType(eaddress)5483)dyn_storage"
      },
      "t_mapping(t_uint256,t_array(t_userDefinedValueType(ebool)5467)dyn_storage)": {
        "encoding": "mapping",
        "key": "t_uint256",
        "label": "mapping(uint256 => ebool[])",
        "numberOfBytes": "32",
        "value": "t_array(t_userDefinedValueType(ebool)5467)dyn_storage"
      },
      "t_mapping(t_uint256,t_array(t_userDefinedValueType(euint16)5473)dyn_storage)": {
        "encoding": "mapping",
        "key": "t_uint256",
        "label": "mapping(uint256 => euint16[])",
        "numberOfBytes": "32",
        "value": "t_array(t_userDefinedValueType(euint16)5473)dyn_storage"
      },
      "t_mapping(t_uint256,t_array(t_userDefinedValueType(euint32)5475)dyn_storage)": {
        "encoding": "mapping",
        "key": "t_uint256",
        "label": "mapping(uint256 => euint32[])",
        "numberOfBytes": "32",
        "value": "t_array(t_userDefinedValueType(euint32)5475)dyn_storage"
      },
      "t_mapping(t_uint256,t_array(t_userDefinedValueType(euint4)5469)dyn_storage)": {
        "encoding": "mapping",
        "key": "t_uint256",
        "label": "mapping(uint256 => euint4[])",
        "numberOfBytes": "32",
        "value": "t_array(t_userDefinedValueType(euint4)5469)dyn_storage"
      },
      "t_mapping(t_uint256,t_array(t_userDefinedValueType(euint64)5477)dyn_storage)": {
        "encoding": "mapping",
        "key": "t_uint256",
        "label": "mapping(uint256 => euint64[])",
        "numberOfBytes": "32",
        "value": "t_array(t_userDefinedValueType(euint64)5477)dyn_storage"
      },
      "t_mapping(t_uint256,t_array(t_userDefinedValueType(euint8)5471)dyn_storage)": {
        "encoding": "mapping",
        "key": "t_uint256",
        "label": "mapping(uint256 => euint8[])",
        "numberOfBytes": "32",
        "value": "t_array(t_userDefinedValueType(euint8)5471)dyn_storage"
      },
      "t_mapping(t_uint256,t_struct(CellDecryptionRequest)390_storage)": {
        "encoding": "mapping",
        "key": "t_uint256",
        "label": "mapping(uint256 => struct FHEMinesweeper.CellDecryptionRequest)",
        "numberOfBytes": "32",
        "value": "t_struct(CellDecryptionRequest)390_storage"
      },
      "t_mapping(t_uint8,t_uint256)": {
        "encoding": "mapping",
        "key": "t_uint8",
        "label": "mapping(uint8 => uint256)",
        "numberOfBytes": "32",
        "value": "t_uint256"
      },
      "t_mapping(t_uint8,t_uint8)": {
        "encoding": "mapping",
        "key": "t_uint8",
        "label": "mapping(uint8 => uint8)",
        "numberOfBytes": "32",
        "value": "t_uint8"
      },
      "t_mapping(t_uint8,t_userDefinedValueType(euint256)5481)": {
        "encoding": "mapping",
        "key": "t_uint8",
        "label": "mapping(uint8 => euint256)",
        "numberOfBytes": "32",
        "value": "t_userDefinedValueType(euint256)5481"
      },
      "t_struct(CellDecryptionRequest)390_storage": {
        "encoding": "inplace",
        "label": "struct FHEMinesweeper.CellDecryptionRequest",
        "members": [
          {
            "astId": 378,
            "contract": "contracts/FHEMinesweeper.sol:FHEMinesweeper",
            "label": "clue",
            "offset": 0,
            "slot": "0",
            "type": "t_userDefinedValueType(euint4)5469"
          },
          {
            "astId": 381,
            "contract": "contracts/FHEMinesweeper.sol:FHEMinesweeper",
            "label": "victory",
            "offset": 0,
            "slot": "1",
            "type": "t_userDefinedValueType(ebool)5467"
          },
          {
            "astId": 383,
            "contract": "contracts/FHEMinesweeper.sol:FHEMinesweeper",
            "label": "delay",
            "offset": 0,
            "slot": "2",
            "type": "t_uint256"
          },
          {
            "astId": 385,
            "contract": "contracts/FHEMinesweeper.sol:FHEMinesweeper",
            "label": "player",
            "offset": 0,
            "slot": "3",
            "type": "t_address"
          },
          {
            "astId": 387,
            "contract": "contracts/FHEMinesweeper.sol:FHEMinesweeper",
            "label": "cellIndexPlusOne",
            "offset": 20,
            "slot": "3",
            "type": "t_uint8"
          },
          {
            "astId": 389,
            "contract": "contracts/FHEMinesweeper.sol:FHEMinesweeper",
            "label": "completed",
            "offset": 21,
            "slot": "3",
            "type": "t_bool"
          }
        ],
        "numberOfBytes": "128"
      },
      "t_struct(Game)319_storage": {
        "encoding": "inplace",
        "label": "struct FHEMinesweeper.Game",
        "members": [
          {
            "astId": 309,
            "contract": "contracts/FHEMinesweeper.sol:FHEMinesweeper",
            "label": "moves",
            "offset": 0,
            "slot": "0",
            "type": "t_uint256"
          },
          {
            "astId": 312,
            "contract": "contracts/FHEMinesweeper.sol:FHEMinesweeper",
            "label": "board",
            "offset": 0,
            "slot": "1",
            "type": "t_userDefinedValueType(euint256)5481"
          },
          {
            "astId": 314,
            "contract": "contracts/FHEMinesweeper.sol:FHEMinesweeper",
            "label": "level",
            "offset": 0,
            "slot": "2",
            "type": "t_uint8"
          },
          {
            "astId": 316,
            "contract": "contracts/FHEMinesweeper.sol:FHEMinesweeper",
            "label": "exploded",
            "offset": 1,
            "slot": "2",
            "type": "t_uint8"
          },
          {
            "astId": 318,
            "contract": "contracts/FHEMinesweeper.sol:FHEMinesweeper",
            "label": "victory",
            "offset": 2,
            "slot": "2",
            "type": "t_uint8"
          }
        ],
        "numberOfBytes": "96"
      },
      "t_uint256": {
        "encoding": "inplace",
        "label": "uint256",
        "numberOfBytes": "32"
      },
      "t_uint8": {
        "encoding": "inplace",
        "label": "uint8",
        "numberOfBytes": "1"
      },
      "t_userDefinedValueType(eaddress)5483": {
        "encoding": "inplace",
        "label": "eaddress",
        "numberOfBytes": "32"
      },
      "t_userDefinedValueType(ebool)5467": {
        "encoding": "inplace",
        "label": "ebool",
        "numberOfBytes": "32"
      },
      "t_userDefinedValueType(euint16)5473": {
        "encoding": "inplace",
        "label": "euint16",
        "numberOfBytes": "32"
      },
      "t_userDefinedValueType(euint256)5481": {
        "encoding": "inplace",
        "label": "euint256",
        "numberOfBytes": "32"
      },
      "t_userDefinedValueType(euint32)5475": {
        "encoding": "inplace",
        "label": "euint32",
        "numberOfBytes": "32"
      },
      "t_userDefinedValueType(euint4)5469": {
        "encoding": "inplace",
        "label": "euint4",
        "numberOfBytes": "32"
      },
      "t_userDefinedValueType(euint64)5477": {
        "encoding": "inplace",
        "label": "euint64",
        "numberOfBytes": "32"
      },
      "t_userDefinedValueType(euint8)5471": {
        "encoding": "inplace",
        "label": "euint8",
        "numberOfBytes": "32"
      }
    }
  }
}